:100000000C945D000C9485000C9485000C949F0565
:100010000C949F050C949F050C9485000C9485000E
:100020000C9485000C9485000C9485000C9485003C
:100030000C9485000C9485000C9485000C9485002C
:100040000C94D3030C9485000C9443040C941D046D
:100050000C9485000C9485000C9485000C9485000C
:100060000C9475040C948500000000002400270007
:100070002A0000000000250028002B0004040404CE
:100080000404040402020202020203030303030342
:10009000010204081020408001020408102001021F
:1000A00004081020000000080002010000030407FB
:1000B0000000000000000000A90511241FBECFEFC2
:1000C000D8E0DEBFCDBF22E0A2E8B1E001C01D92C2
:1000D000A63AB207E1F711E0A0E0B1E0E2E3F4E113
:1000E00002C005900D92A238B107D9F710E0CDE516
:1000F000D0E004C02197FE010E941508CC35D1073D
:10010000C9F70E94E2050C94170A0C940000ECEA6F
:10011000F0E09491E8E9F0E02491E4E8F0E0E49183
:10012000EE2309F43CC0992339F1933091F038F46F
:100130009130A9F0923001F594B59F7D12C09730AF
:1001400091F09830A1F09430B9F4909180009F7DA7
:1001500003C0909180009F77909380000DC094B56C
:100160009F7794BD09C09091B0009F7703C0909194
:10017000B0009F7D9093B000F0E0EE0FFF1FEE58AF
:10018000FF4FA591B4919FB7F894811104C08C9151
:100190002095282302C0EC912E2B2C939FBF08950D
:1001A000CF93DF9390E0FC01E057FF4F2491FC01D7
:1001B000E458FF4F8491882361F190E0880F991FE4
:1001C000FC01E859FF4FC591D491FC01EE58FF4F57
:1001D000A591B491611109C09FB7F89488812095C9
:1001E00082238883EC912E230BC0623061F49FB789
:1001F000F8948881322F309583238883EC912E2BBD
:100200002C939FBF06C08FB7F894E8812E2B2883CC
:100210008FBFDF91CF9108953FB7F8948091F5019A
:100220009091F601A091F701B091F80126B5A89B35
:1002300005C02F3F19F00196A11DB11D3FBFBA2F78
:10024000A92F982F8827820F911DA11DB11DBC01D8
:10025000CD0142E0660F771F881F991F4A95D1F79D
:1002600008958F929F92AF92BF92CF92DF92EF92BA
:10027000FF926B017C010E940C014B015C01C114D7
:10028000D104E104F104F1F00E940C01DC01CB0186
:1002900088199909AA09BB09883E9340A105B105AF
:1002A00070F321E0C21AD108E108F10888EE880E47
:1002B00083E0981EA11CB11CC114D104E104F10417
:1002C00019F7DDCFFF90EF90DF90CF90BF90AF9008
:1002D0009F908F900895CF92DF92EF92FF920F93AD
:1002E0001F93CF93DF936C017A018B01C0E0D0E0C4
:1002F000CE15DF0581F0D8016D918D01D601ED910C
:10030000FC910190F081E02DC6010995892B11F037
:100310002196EECF7E01C701DF91CF911F910F9102
:10032000FF90EF90DF90CF900895FC01538D448DA6
:10033000252F30E0842F90E0821B930B541710F090
:10034000CF96089501970895FC01918D828D98179D
:1003500061F0828DDF01A80FB11D5D968C91928DA9
:100360009F5F9F73928F90E008958FEF9FEF0895A6
:10037000FC01918D828D981731F0828DE80FF11D6F
:10038000858D90E008958FEF9FEF0895FC01918D8A
:10039000228D892F90E0805C9F4F821B91098F7383
:1003A0009927089589EF91E00E94C60121E0892BE9
:1003B00009F420E0822F0895FC01848DDF01A80F4D
:1003C000B11DA35ABF4F2C91848D90E001968F737D
:1003D0009927848FA689B7892C93A089B1898C919C
:1003E000837080648C93938D848D981306C00288EB
:1003F000F389E02D80818F7D80830895EF92FF92B5
:100400000F931F93CF93DF93EC0181E0888F9B8D37
:100410008C8D981305C0E889F989808185FD26C0F7
:10042000F62E0B8D10E00F5F1F4F0F731127E02E7C
:100430008C8DE8120CC00FB607FCFACFE889F98959
:10044000808185FFF5CFCE010E94DC01F1CF8B8D3D
:10045000FE01E80FF11DE35AFF4FF0829FB7F894B9
:100460000B8FEA89FB89808180620AC09FB7F8946C
:10047000EE89FF896083E889F989808183708064CF
:1004800080839FBF81E090E0DF91CF911F910F911A
:10049000FF90EF900895CF93DF93EC01888D882330
:1004A000C9F0EA89FB89808185FD05C0A889B989E1
:1004B0008C9186FD0FC00FB607FCF5CF808185FFBC
:1004C000F2CFA889B9898C9185FFEDCFCE010E942A
:1004D000DC01E7CFDF91CF91089580E090E0892B98
:1004E00029F00E94D20181110C940000089585ED3D
:1004F0008093BC008091BC0084FDFCCF1092C901A8
:1005000008954091A501262F30E0240F311D21329E
:100510003105DCF42091C9012430C9F4FC0180E0EC
:1005200090E0861758F43091A5012191DC01AB577A
:10053000BE4FA30FB11D2C930196F3CF8091A5015F
:10054000680F6093A50180E0089581E0089582E03E
:10055000089508958FEF9FEF08958FEF9FEF08950F
:100560008091840190E09195819591090895CF93B0
:10057000DF93CB01EA01642F0E948102CE01DF915B
:10058000CF910895CF93DF931F92CDB7DEB76983E4
:1005900061E0CE0101960E94810281E090E00F901F
:1005A000DF91CF910895089580E090E0089589EF5C
:1005B00091E00E94A4018636910529F489EF91E02B
:1005C0000E94A401F4CF0895009769F0FC01019006
:1005D0000020E9F73197AF01481B590BBC0189EFA7
:1005E00091E00C946B0180E090E00895CF93DF934D
:1005F0000E94E402EC018BE291E00E94E4028C0F85
:100600009D1FDF91CF910895CF93DF93FC0144812B
:1006100055816081718189EF91E00E946B01EC014D
:100620008BE291E00E94E4028C0F9D1FDF91CF913D
:1006300008950E94020A0F931F93CF93DF93EC015A
:1006400088819981009729F02A813B8126173707F5
:1006500088F48B016F5F7F4F0E943C09009761F027
:10066000998388831B830A832C813D81232B11F47A
:10067000FC01108281E001C080E0DF91CF911F91E9
:100680000F910895EF92FF920F931F93CF93DF93F3
:100690006115710511F480E01CC041155105C1F0D0
:1006A0007B01EC018C819D818A01080F191FB80123
:1006B000CE010E941B03882371F3288139818C812C
:1006C0009D81B701820F931F0E94100A1D830C8326
:1006D00081E0DF91CF911F910F91FF90EF900895EE
:1006E000EF92FF920F931F93CF93DF93EC017B0167
:1006F0008A01BA010E941B032881398181110DC032
:100700002115310519F0C9010E94B3081982188218
:100710001D821C821B821A8206C01D830C83B701B6
:10072000C9010E94100ACE01DF91CF911F910F9154
:10073000FF90EF900895EF92FF920F931F93CF9346
:10074000DF93CDB7DEB761970FB6F894DEBF0FBE6B
:10075000CDBF8C01CB01F80111821082138212826D
:10076000158214824AE09E012F5F3F4F7901B90143
:100770000E94B407F70101900020E9F73197AF011B
:100780004E195F09B701C8010E94700361960FB648
:10079000F894DEBF0FBECDBFDF91CF911F910F91B7
:1007A000FF90EF9008951F920F920FB60F921124B1
:1007B0002F933F938F939F93AF93BF938091F101BA
:1007C0009091F201A091F301B091F4013091F00108
:1007D00023E0230F2D3720F40196A11DB11D05C084
:1007E00026E8230F0296A11DB11D2093F0018093EE
:1007F000F1019093F201A093F301B093F401809181
:10080000F5019091F601A091F701B091F8010196E0
:10081000A11DB11D8093F5019093F601A093F701FE
:10082000B093F801BF91AF919F918F913F912F911C
:100830000F900FBE0F901F9018951F920F920FB63A
:100840000F9211242F933F934F935F936F937F9356
:100850008F939F93AF93BF93EF93FF9389EF91E0B3
:100860000E94DC01FF91EF91BF91AF919F918F9119
:100870007F916F915F914F913F912F910F900FBE9C
:100880000F901F9018951F920F920FB60F92112480
:100890002F938F939F93EF93FF93E0910902F09131
:1008A0000A028081E0910F02F091100282FD12C0D5
:1008B0009081809112028F5F8F73209113028217B3
:1008C00051F0E0911202F0E0E750FE4F958F8093D7
:1008D000120201C08081FF91EF919F918F912F9122
:1008E0000F900FBE0F901F9018951F920F920FB68A
:1008F0000F9211242F933F934F935F936F937F93A6
:100900008F939F93AF93BF93EF93FF938091B90021
:10091000887F803609F49CC068F5883209F45BC092
:1009200090F4803109F454C038F4882309F4F2C0FB
:10093000883009F44DC0F2C0883109F44CC08032CF
:1009400009F45DC0EBC0803409F468C048F480331A
:1009500009F455C0883309F0E1C08093C801D4C0C0
:10096000803509F44FC0883509F45DC0883409F03A
:10097000D5C0D2C0883909F4C3C0A8F4883709F4B7
:1009800067C038F4883609F463C0803709F460C062
:10099000C5C0883809F4B4C0803909F45FC0803814
:1009A00009F0BCC05BC0803B09F484C038F4803AD5
:1009B00009F466C0883A09F47DC0B0C0803C09F4EF
:1009C000A3C0883C09F4A0C0883B09F486C0A6C037
:1009D0008091EE0110C09091ED018091EC0198178B
:1009E00070F5E091ED0181E08E0F8093ED01F0E074
:1009F000E453FE4F80818093BB0085EC82C08093DE
:100A0000C8018AC0E091ED0181E08E0F8093ED0175
:100A10008091BB00F0E0E453FE4F80839091ED01A4
:100A20008091EC016AC0E091ED0181E08E0F80932E
:100A3000ED018091BB00F0E0E453FE4F8083809194
:100A4000CB01811169C081E08093CA0184EA5DC055
:100A500083E08093C9011092C701CFCF8091C70175
:100A6000803208F04DC0E091C70181E08E0F809385
:100A7000C7018091BB00F0E0E955FE4F8083BDCFF8
:100A800085EC8093BC001092C9018091C70180322F
:100A900030F4E091C701F0E0E955FE4F108260911B
:100AA000C70170E087EA91E0E0E0F0E0099510927C
:100AB000C70134C084E08093C9011092A60110924E
:100AC000A501E0E0F0E009958091A501811105C044
:100AD00081E08093A50110928501E091A60181E05B
:100AE0008E0F8093A601F0E0EB57FE4F808180933C
:100AF000BB009091A6018091A501981708F47DCFC5
:100B000085E88093BC000AC085EC8093BC001092FD
:100B1000C90104C01092C8010E947702FF91EF91B1
:100B2000BF91AF919F918F917F916F915F914F9105
:100B30003F912F910F900FBE0F901F9018951F920D
:100B40000F920FB60F9211240F900FBE0F901F90AF
:100B50001895E9EFF1E01382128288EE93E0A0E0AD
:100B6000B0E084839583A683B7832BE031E03183A3
:100B7000208325EC30E03587248724EC30E037876C
:100B8000268720EC30E0318B208B21EC30E0338B5A
:100B9000228B22EC30E0358B248B26EC30E0378B37
:100BA000268B118E128E138E148EE6E9F2E01382DC
:100BB000128284839583A683B7838DE191E091832C
:100BC00080830895CF93DF93CDB7DEB7A7970FB695
:100BD000F894DEBF0FBECDBF789484B5826084BD2B
:100BE00084B5816084BD85B5826085BD85B5816031
:100BF00085BD80916E00816080936E0010928100AF
:100C00008091810082608093810080918100816069
:100C1000809381008091800081608093800080912A
:100C2000B10084608093B1008091B00081608093B6
:100C3000B00080917A00846080937A0080917A007D
:100C4000826080937A0080917A00816080937A003C
:100C500080917A00806880937A001092C10061E0F0
:100C600088E00E94D00060E08EE00E94D00060E04A
:100C700080E10E94D000E0910902F0910A0282E036
:100C80008083E0910502F09106021082E091070254
:100C9000F091080280E1808310921102E0910D0230
:100CA000F0910E0286E08083E0910B02F0910C023D
:100CB000808180618083E0910B02F0910C02808141
:100CC00088608083E0910B02F0910C028081806843
:100CD0008083E0910B02F0910C0280818F7D8083F4
:100CE0008EE291E00E94F60280E491E00E94F6021A
:100CF0001091EF0111112CC089EF91E00E94C60103
:100D0000892B99F089EF91E00E94A4018636910524
:100D1000B1F484E591E00E94F60265E070E080E0C5
:100D200090E00E94310111E00AC080E691E00E944B
:100D3000F60264E670E080E090E00E9431011093DA
:100D4000EF0165E070E080E090E00E943101D0CFDB
:100D500019A281E388A3CE0180960E94E4028BE26F
:100D600091E00E94E40282E691E00E94F6020E9475
:100D7000D70280E4782E89EF91E00E94C601892B8A
:100D8000B1F189EF91E00E94A4018536910579F5D2
:100D90008FE691E00E94F60280E00E9487000E94A8
:100DA000D70289EF91E00E944B02E0910B02F09193
:100DB0000C0280818F7E8083E0910B02F0910C0207
:100DC0008081877F8083E0910B02F0910C0280810B
:100DD0008F778083E0910B02F0910C0280818F7DF0
:100DE00080838091130280931202109200018091FF
:100DF0000001882309F4B5C0ADB6BEB68DB79EB765
:100E00008C5D95400FB6F8949EBF0FBE8DBF0DB799
:100E10001EB70F5F1F4F81E00E9487006AEF70E0EE
:100E200080E090E00E94310180E00E9487006AEF3C
:100E300070E080E090E00E94310181E00E94870034
:100E40006AEF70E080E090E00E94310180E00E9453
:100E500087006AEF70E080E090E00E94310181E05D
:100E60000E94870063E171E080E090E00E94310120
:100E70007801480194E2891A9AEF990A6801709200
:100E80007C0080917A00806480937A0080917A005F
:100E900086FDFCCF809178002091790090E0922B24
:100EA000F601819391936F0161E070E080E090E042
:100EB0000E9431018C149D0411F780E00E9487008C
:100EC000C12CD12C06521A4F1BA21AA21DA21CA281
:100ED0001FA21EA242E050E0FDEECF16F2E0DF06B8
:100EE00041F06CE771E0CE0182960E947003F70139
:100EF00007C06FE771E0CE0182960E947003F8018F
:100F000060817181CE0101960E949B034D815E81BB
:100F100069817A81CE0182960E94420389819A81F9
:100F20000E94B308CE0182960E94040361E070E043
:100F300080E090E00E9431018AA19BA10E94B30849
:100F4000FFEFCF1ADF0A82E0E80EF11C9EEEC91611
:100F500092E0D90609F0B8CF0FB6F894BEBE0FBE26
:100F6000ADBE0E946D0207CFBB27FB015527AA2704
:100F7000880F991FAA1FA41710F0A41B8395505126
:100F8000B9F7A05DAA3308F0A95DA193009779F79E
:100F9000B111B1931192CB010C94CE07DC01FC018D
:100FA000672F71917723E1F7329704C07C916D939D
:100FB00070836291AE17BF07C8F308952F923F92D6
:100FC0004F925F926F927F928F929F92AF92BF9259
:100FD000CF92DF92EF92FF920F931F93CF93DF9305
:100FE000CDB7DEB7CA1BDB0B0FB6F894DEBF0FBE62
:100FF000CDBF09942A88398848885F846E847D84AF
:101000008C849B84AA84B984C884DF80EE80FD80B0
:101010000C811B81AA81B981CE0FD11D0FB6F89426
:10102000DEBF0FBECDBFED010895EE0FFF1F05908F
:10103000F491E02D09940F931F93CF93DF938230A7
:10104000910510F482E090E0E091A402F091A502F5
:1010500020E030E0A0E0B0E0309719F1408151810C
:101060000281138148175907C8F08417950769F45E
:10107000109731F012960C93129713961C9327C079
:101080000093A4021093A50222C02115310519F086
:101090004217530718F49A01BD01EF01DF01F8016F
:1010A000DBCF21153105F9F0281B390B2430310530
:1010B00080F48A819B816115710521F0FB01938386
:1010C000828304C09093A5028093A402FE0132960D
:1010D00044C0FE01E20FF31F819391932250310926
:1010E000398328833AC02091A2023091A302232B96
:1010F00041F420910301309104013093A302209325
:10110000A20220910101309102012115310541F423
:101110002DB73EB74091050150910601241B350BB8
:10112000E091A202F091A302E217F307A0F42E1BB4
:101130003F0B2817390778F0AC014E5F5F4F24173B
:10114000350748F04E0F5F1F5093A3024093A20251
:101150008193919302C0E0E0F0E0CF01DF91CF9165
:101160001F910F910895CF93DF93009709F481C0E9
:10117000FC01329713821282A091A402B091A502C1
:10118000109781F420813181820F931F2091A20258
:101190003091A3022817390751F5F093A302E09389
:1011A000A20267C0ED0120E030E0CE17DF0740F477
:1011B0004A815B819E0141155105F1F0EA01F5CFAD
:1011C000D383C28340815181840F951FC817D907EB
:1011D00059F488819981840F951F029691838083A9
:1011E0008A819B81938382832115310529F4F093B1
:1011F000A502E093A4023DC0E901FB83EA83499183
:101200005991C40FD51FEC17FD0761F480819181BE
:10121000840F951F0296E9019983888382819381C7
:101220009B838A83E0E0F0E012968D919C91139766
:10123000009719F0FD01DC01F7CF8D919C9111977A
:101240009D012E5F3F4F820F931F2091A20230918C
:10125000A3022817390769F4309729F41092A502E0
:101260001092A40202C013821282B093A302A09330
:10127000A202DF91CF910895A0E0B0E0E2E4F9E0AE
:101280000C94E207EC01009721F4CB010E941B08AB
:10129000B4C0FC01E60FF71F9C0122503109E21790
:1012A000F30708F4A8C0D9010D911C9111970617F6
:1012B0001707B0F00530110508F49BC0C80104976A
:1012C0008617970708F495C002501109061B170BE3
:1012D000019311936D937C93CF010E94B30889C051
:1012E0005B01A01AB10A4C01800E911EA091A402CC
:1012F000B091A502612C712CE12CF12C109709F40E
:1013000046C08D919C911197A815B905B1F56C0156
:1013100042E0C40ED11CCA14DB0478F14C018A18D7
:101320009B08640142E0C40ED11C1296BC90129737
:101330001396AC91B5E0CB16D10440F0B282A383F2
:1013400091828082D9016D937C9309C00E5F1F4FFB
:10135000800F911FF90191838083EB2DFA2FE11407
:10136000F10431F0D7011396FC93EE93129741C02C
:10137000F093A502E093A4023CC06816790608F435
:101380003C017D0112960D90BC91A02DB7CF8091AC
:10139000A2029091A30288169906E1F466167706D8
:1013A000C8F48091010190910201009741F48DB73A
:1013B0009EB74091050150910601841B950BE817DB
:1013C000F907C8F4F093A302E093A202F901718334
:1013D00060830FC0CB010E941B087C01009759F06D
:1013E000A801BE010E94070ACE010E94B308C701EE
:1013F00004C0CE0102C080E090E0CDB7DEB7EEE0E1
:101400000C94FE0781E090E0F8940C94170AFB011D
:10141000DC0102C001900D9241505040D8F7089570
:10142000FB01DC0101900D920020E1F70895F89492
:02143000FFCFEC
:10143200010000A602800000000000FE016B019581
:10144200014B02C601A401B80100000000C202B7AC
:1014520002D402A902B002AD02AA020D0A0053652B
:101462007474696E672075702053657269616C00CF
:10147200426567696E6E696E672068616E64736843
:10148200616B650052657475726E207472756500C9
:101492006200456E64206F66207368616B6500456B
:1014A2006E64696E6720636F6D6D7300612C0062FC
:0214B2002C000C
:00000001FF
