:0400000500000BDF0D
:020000040000FA
:1000000000370020C90B0000D90B0000DB0B0000FB
:10001000DD0B0000DD0B0000DD0B00000000000028
:10002000000000000000000000000000DD0B0000E8
:10003000DD0B000000000000DD0B0000DD0B000008
:10004000DD0B0000DD0B0000DD0B0000DD0B000010
:10005000DD0B0000DD0B0000DD0B0000DD0B000000
:10006000DD0B0000DD0B0000DD0B0000DD0B0000F0
:10007000DD0B0000DD0B0000DD0B0000DD0B0000E0
:10008000DD0B0000DD0B0000DD0B0000DD0B0000D0
:10009000DD0B0000DD0B0000DD0B0000DD0B0000C0
:1000A000DD0B0000DD0B0000DD0B0000DD0B0000B0
:1000B000DD0B0000DD0B0000DD0B0000DD0B0000A0
:1000C000DD0B0000DD0B0000DFF8E8130968C1F369
:1000D00004611629A8BF203901EB2071491C16299B
:1000E000A8BF152104DA6FF009029142B8BF11468A
:1000F00001F01F01DFF8C02341F4F8511180DFF84F
:10010000BC13096889074FBF40F040600021DFF849
:10011000B0231160DFF8AC13C0F3C06282F00102BB
:10012000C0F380600A6080F001008860704770B59D
:10013000054682B0084600F0EEF80246DFF8884334
:10014000182100F060F800F012F980B2009000234E
:1001500040F2FF322C21204600F031FADFF86C63C8
:10016000F068C0F30D021C2100F04DF8706800F03B
:10017000FC32142100F047F83068DFF85413DFF840
:10018000546301EA0002102100F03DF8284600F017
:10019000F8F802460C2100F036F8284600F01CF969
:1001A000400040F020003072284600F01EF940F078
:1001B00010003072284600F021F90246282100F094
:1001C00022F8284600F0FFF8400040F06000F0728E
:1001D000284600F02DF9C00040F08000307028461D
:1001E00000F02FF98000BC4940F47C40088028468C
:1001F00000F011F90246082100F005F8B7494FF464
:100200008000086073BD204600F0D4B9F8B5810CB9
:1002100001F003010129B24CB04D02D002292AD0CD
:1002200026E0216A8A0323D44FF480422A606FF0CB
:100230008F06AC4AD2F8023033404E0A06F08006F0
:100240003343C1F303363343C2F80230C1F303260C
:10025000D2F801301B0946EA0313C2F801306FF0EF
:10026000E7061368334001F0E7011943116002E02B
:100270004FF0004129609C4E9C4AB16809075CBF61
:100280004021A9624FF400712964800D216AC90CD4
:1002900001F0030141F0300110F00300117003D0B0
:1002A000022826D008D326E00121042000F0AAF974
:1002B0008F4800F0F0F822E0012000F0C5F9074671
:1002C0003946042000F09EF9042000F0BDF9B84240
:1002D000FAD1366826F07F4000F0DDF8854B1B68C8
:1002E0001B684FF060220721300E98474FF4806062
:1002F0002860032100E00221042000F083F9206837
:100300007D4900F03F00087047F618007B490880DF
:100310007B480068F1BD7B490968C1F383628303B0
:10032000C1F38F2120D4000400164FF6FF7307E0BD
:10033000490804D11946520804BF01220121401C7A
:100340000028F5D401280FDB490041F00101B1F587
:10035000803F21BF0121520042F00102102A24BF38
:100360000F221946401EEDE741EA024070476548FA
:10037000016800680002C1F3870100F4407008437F
:10038000704730B5604C61490A686568ED07C2F393
:100390000351C2F303430AD42468250501EB2571F8
:1003A000240481F3040103EB247383F304031B048B
:1003B00043EA015193B21943222824BF02F080403E
:1003C0000143084630BD0021202803D3504800686F
:1003D000C0F30151084670470121222803D34D483C
:1003E0000068C0F30071084670470121222803D33A
:1003F00048480068C0F34071084670470021202833
:1004000007D343480068C10C01F44071C0F3845025
:1004100001430846704720283F4907D33C483F4ADC
:100420000068810A02EA003040EA815108467047BC
:100430000021222803D337480068C0F3C061084672
:1004400070470021222803D332480068C0F3455189
:1004500008467047324800680028FBD13148324ACC
:10046000416812688908890041F0005141F0040197
:10047000520748BF41F001010BD4026812F0030F8C
:1004800007D041F003024260026802F00302032A2F
:10049000FAD141607047254982B20A60C0F3074033
:1004A000486001208860224800680028FBD00020B6
:1004B00088607047B81200506E6208400000094022
:1004C00094042A430000204300A00C407013005005
:1004D000FFFFFC0041A10C40DCA10C4040A00C40FF
:1004E0006C1300500A600840A83F005008A10C405F
:1004F000BD378600B40100100BB00C4070B00C404A
:100500002C20094050130050AC3F0050781300508D
:10051000981300508C13005000803F4000F03F00C3
:100520000C00684200400340B03F00503C600C406B
:1005300084088C4370B504460D46164600F094F8C6
:10054000401E8041C00F1A490A68002AFCD0012EC3
:1005500002D0022E02D003E0257002E0258000E0E8
:10056000256001220A6000281CBFBDE8704000F031
:100570007FB870BD38B504460D4600F075F8401ED2
:100580008041C00F0A490A68002AFCD0012D02D020
:10059000022D02D003E0247802E0248800E02468E1
:1005A00001220A6008B100F063F8204632BD000065
:1005B00000800C400B46114604221818BAE710B50B
:1005C00000EB4100102B144600F5007002D3103BE5
:1005D000001D240C0299994041EA0441BDE81040F5
:1005E0000422A7E738B51D460818102D144602D37B
:1005F000103D801C240C0221FFF7BCFF204080B27C
:10060000E84032BD70B50446E00782B00D46154E95
:1006100005D5A8B200900023012200F011F8A00730
:1006200005D5A8B200900123022200F009F8600766
:1006300005D5ADB2009502230C2200F001F873BD80
:1006400000213046FFF7BBBF0146042907BF1D2329
:100650004FF0C0421C234FF0805202483421FFF774
:10066000C1BF000000A00C40EFF3108072B67047CD
:10067000EFF3108062B670470120DFF87413086052
:1006800070470120DFF86C1308607047DFF86813CB
:100690000860704710B50400A4B24FF4805000FB0E
:1006A00004F01EF0B9FC002801D1002001E05FF049
:1006B000FF3010BD13B504000422210001A81EF074
:1006C000B0FC002801D1002001E05FF0FF3016BD32
:1006D00070B504000D0016002A00310020001EF045
:1006E000BFFC70BD70B504000D0016002A0031007B
:1006F00020001EF0C5FC70BD2DE9F84304000D007C
:100700001600370BA819401E000B8046ED1CAD08E3
:1007100016F0030F02D05FF0FF3038E0B84502D387
:10072000B8F11F0F02D35FF0FF3030E0B8452DD392
:100730004FF48069474501D128008146380080B2D6
:10074000FFF7A8FF002802D05FF0FF301FE0484607
:10075000B0F1010980B2002816D0042269462000B9
:10076000FFF7B6FF002802D05FF0FF300FE00099DE
:100770003000FFF79FFF002802D05FF0FF3006E057
:10078000241D361D6D1EE2E77F1CCFE70020BDE86B
:10079000F2832DE9F14F82B00C0000254FF480590F
:1007A0009DF808004FF4805101FB00FA934F4A4630
:1007B000514638001EF074FC9DF808008DF80000CA
:1007C0008F48C0884FF4806190FBF1F88C48C08856
:1007D000A4B2042194FBF1F108185FFA88F84FF4F1
:1007E000806101FB180080B287009DF8000010EBCB
:1007F00008089DF80000060040463100C0B2C9B2AA
:1008000088423FD330009DF80010C0B2884202D128
:1008100014F1040901E05FF000091FFA89F9B9F544
:10082000805F18DA30004146C0B2C9B2884205D3B1
:100830004846390080B289B288420CD26F481FFA0C
:1008400089F910F80910280080B200F03FF805007F
:1008500019F10109E1E730004146C0B2C9B288424E
:100860000ED04FF4805AF6B2701C4FF480514843BA
:100870000190DFF888B15246019958461EF010FCED
:10088000761CB9E70021280080B200F01FF80500AF
:100890000021280080B200F019F80500280080B27D
:1008A000BDE8FE8F70B504000D001600290089B266
:1008B0002000C0B2FFF76DFF318880B2814203D1C2
:1008C00030887080012000E0002070BD30B441F21B
:1008D000210200242300DBB2082B0FDAC0F3C0345E
:1008E00014F0010440000D0601D550F00100E4B2FF
:1008F000002C00D050405B1C4900ECE780B230BCBB
:10090000704770B504000D0016001EF09BFB10F13F
:10091000010F13D0320029002000FFF7EDFE1EF07A
:100920009BFB042037490860FFF7ABFEFFF7A4FEEE
:100930000020FFF7ABFEFFF79BFEFEE770BD70B532
:100940001EF080FB10F1010F51D05FF4F020040085
:10095000B4F5F22F49D8102229492000FFF7B8FE3C
:10096000274800884FF6FF7188423BD02448008812
:10097000002837D02248008821494988884231D14F
:100980001F48C07BFF282DD11D48807B012802D144
:100990000020050008E01A48807B022803D15FF49C
:1009A0000030050000E01DE01548808982001448F1
:1009B000C08881002800FFF79FFE114880898000D1
:1009C000000B06000E4A00213000C0B2FFF76AFF9C
:1009D0000028D9D080200A49C87310220849200075
:1009E000FFF780FE14F58054B2E71EF035FB70BDB2
:1009F00000010043040100430000084008000020FB
:100A0000081000201021084080B5FFF798FF41F240
:100A100010004168D0F800D0084701BD2B490A6892
:100A2000C2F30F324BF69A139A424FF0FF3006D1C1
:100A30000868000F0B280CBF0420002070474BF6FD
:100A4000BE118A4201D1012070474BF641318A42E2
:100A500001D1032070474BF620318A4208BF0220A3
:100A6000704700001948F8B50068050F184800687D
:100A700000F0FF06802E28BF0026FFF7CFFF0428D6
:100A80004FF0FF3406F10A071DD8DFE800F003122B
:100A90001A1A1B00012D12D0032D06D0072D06D0E7
:100AA000082D08BF06F116040DE014240BE01524F0
:100AB00009E025B1022D08BF06F1140403E00A2461
:100AC00001E005B93C4660B2F2BD000018130050C9
:100AD000A010005080B5FFF7A1FF20B9FFF7C2FFBB
:100AE000162800DB01BDFEE719E050F8041BCB0718
:100AF00044BFA9F101035918121F0023042A41F829
:100B0000043BF9D25FEA827C0B4604D54FF0000C1F
:100B1000A1F800C09B1CD10744BF0021197050F8F8
:100B2000042B002AE1D1704700002000C21500000C
:100B300000001000C214000000000800EF120000C6
:100B400000000400EF1100000000000000000000A1
:100B500010B5074979441831064C7C44163404E03A
:100B60000A68081D114488470146A142F8D110BD0A
:100B7000080000001400000071FFFFFF08000000E3
:100B800000000020000000000120C046002801D025
:100B9000FFF7DEFF0020AFF30080FFF735FF00F026
:100BA00000F800F001B800000746384600F002F8EF
:100BB000FBE7000080B5AFF30080024A1100182067
:100BC000ABBEFBE72600020080B51EF029FD00F059
:100BD00006F800F002F801BDFEE7FEE7FEE7AFF31E
:100BE0000080AFF30080FFF7CFFF000090FFFF0011
:1010100020430020B5E3000051DA000051DA00005F
:1010200051DA000051DA000051DA000051DA000014
:1010300051DA000051DA000051DA000051DA000004
:0C10400051DA000051DA00001DDA000057
:10105000FEE7DFF89408007D7047DFF88C28117DEB
:10106000107508467047DFF88018D1E90023C0E901
:1010700000237047DFF87008C0690047DFF8681880
:10108000096A08473CE110B501F062FC38B1DFF8AD
:10109000BC48A06801F065FCA0614FF0FF3010BDB6
:1010A00010B5FFF7EFFF0446DFF8A00880680021C5
:1010B00001F05BFC00F02DBC38B5FFF7E3FFDFF873
:1010C00014590446A868002101F04FFC6969081A08
:1010D000A969814238BF002084F3118832BD70B500
:1010E000DFF8F06804460D46B068214601F03BFC8D
:1010F0003461756170BD2DE9F0478046DFF8C8089E
:10110000DFF8D0480768E55989464FF0FF3A0BE011
:10111000F069B1698847B08A012805D1F068A0EB71
:101120000900504598BF8246E019854212D02E46EC
:101130002D68B08A0128F7D1B8F1010F04BFF0681B
:101140004845E8D13169002907BF0020B08208185E
:10115000F060DDE75046BDE8F0872DE9F041FFF78C
:1011600091FFDFF870580446A868012101F0FDFBEB
:101170000121A9830021E9836E6929682A68871BF8
:10118000801A711A884204D20020A88384F311883F
:101190002BE084F31188002406E0A61931460120D3
:1011A000FFF7A9FF3F1B0446A742F6D2FFF76AFFED
:1011B0008046E88B012804D131460020FFF79BFFD1
:1011C0000446A96914F1010F08BF084603D0E01BCB
:1011D000814238BF08468119FFF781FF012028842A
:1011E0000020A8832E6088F31188BDE8F08138B50F
:1011F00004461D46A2606869DFF8CC272061A16122
:101200002146A869E0610020A0821268DFF8C407C7
:10121000104400F0A2F8288A18B12046BDE83240F8
:101220003CE031BD8260816100220261C361828243
:101230000146DFF89427DFF89C07126810448CE021
:1012400038B5DFF890570446288C012804BFA88BD6
:10125000002817D1A868012101F087FB29686A6975
:101260002B68D21A411A8A420CD3A2681118E16085
:101270000123A3826B69181A82420ED21046BDE880
:1012800034402CE7FFF70CFFA1680818E06001204C
:10129000A082A88B012808BFE88331BD38B5044679
:1012A000FFF7F0FE05462046FFF7CAFF00F0A0BC9E
:1012B00000218182DFF89416C0684969884203D111
:1012C000DFF8D8080068E9E770470161704781607E
:1012D00070477047808A7047704780B500F001F80A
:1012E000FCE738B50024DFF8B85804E0686850F827
:1012F00024008047641C28688442F7DB31BD00BFAE
:10130000EFF31180202181F31188704721E00168FB
:101310000A6802605060084670470168814201D146
:101320000120704700207047426808604A601160E1
:101330004160704710B50446FFF7E1FF01462068A1
:101340000268226002685460FFE781F3118810BDD3
:1013500000BF406000607047E6E738B504460D46C0
:10136000FFF7CDFF2C606168696061680D606560A2
:10137000FFE780F3118831BD016842681160416860
:10138000006841607047BBE710B50446107E2072CC
:1013900061810021DFF8CC080068204401F0D2FB15
:1013A000002020600120606010BDDFF8B8180968D7
:1013B000084401F0DBBB38B50446FFF7E4FF0546FF
:1013C000207C022808D12046FFF7D6FF0020207499
:1013D0002946A06800F00FFC00F00ABC70B50E466C
:1013E00016F1010F18BF002E8EB004460AD06B46CE
:1013F0003246DFF8741805A8FFF714FF05A803901C
:10140000022002E00020039003208DF81000FFF777
:10141000BAFF0546608990BB16B985F311883AE09A
:1014200000F038FA0646DFF8440800690290C0F878
:1014300018D000F0B9FBDFF82C080068694620449A
:10144000FFF772FF9DF81000022804BF0398FFF712
:10145000F7FE85F31188304600F023FAFFF793FF7B
:101460000546039818B1FFF787FF0020039000207E
:101470000299886185F311889DF810000BE060895E
:10148000401E6081039818B1FFF776FF002003909B
:1014900085F3118801200EB070BD70B50546FFF7C9
:1014A00072FF0446DFF8BC0700682E183046FFF7CD
:1014B00034FF38B1287AC0074EBF01206889401C2C
:1014C000688134E100F0E6F905463046FFF71FFF7A
:1014D000064601203074F06808B1FFF7E9FEB068F5
:1014E000214600F088FB84F311882846BDE870404F
:1014F000D7E105E7EFF31180002104E72DE9F84378
:101500000446DFF86C57A06AD5F81080EF68AE6823
:101510002861EC60606AA860206A60620020A08395
:1015200028800120FFF799FD8146FFF7E3FF21693D
:10153000E068A2689047FFF7DCFF4846FFF78DFDA3
:1015400001202880C5F81080EF60AE60BDE8F1830F
:10155000F8B5DFF81C4725696068B0FA80F0C0F183
:101560001F00616901EBC0063046FFF7D0FE074659
:101570003046FFF7D2FE00F097F8606840B1B0FA4D
:1015800080F0C0F11F00616901EBC006B542EBD3EA
:10159000F1BD000070B5DFF8D8462669FFF7A9FF56
:1015A00005466068B0FA80F0C0F11F00616901EB88
:1015B000C00086420ED200F06DF90646DFF86807DB
:1015C00001F0D8FB0020208085F311883046BDE86B
:1015D000704066E10020208085F3118870BD10B551
:1015E000002404E02146002001F015FB641CDFF814
:1015F0003C0700688442F5DB002000E0401CDFF877
:10160000301709688842F9D34FF0FF3010BD09E068
:10161000DFF85C060188481E8041C00F7047DFF884
:10162000501639E1002080B590B9FFF762FFDFF86E
:1016300040164A6822B180F31188FFF7ABFF02E041
:101640000A8080F3118800F025F9BDE8024028E106
:1016500001BD000000B17047F8B5DFF814466068BE
:10166000F8B1FFF747FFFFF744FF25696068B0FA5C
:1016700080F0C0F11F0003E0B0FA80F0C0F11F005D
:10168000616901EBC006B5420BD23046FFF73FFE61
:1016900007463046FFF741FE00F006F86068002874
:1016A000EAD100202080F1BD18B16068B969884393
:1016B0006060384622E7DFF8B80580687047F8B503
:1016C00004460F4616461D46FFF742FEA76000F08F
:1016D00048F808BF052000F03EF80020A08300F085
:1016E00048F8A062284600F0CCFE00B10220F2BD0E
:1016F000704770B50546FFF7FCFE0446A88B00B1A5
:1017000015E00120A883FFF78AFF0646A86A29464C
:10171000FFF70AFEDFF85805AA69416811434160E6
:1017200084F3118816B9BDE8704033E770BD84F3C7
:10173000118870BD616280F311882046704738B50A
:1017400004460D46FFF7D5FE616A2943FFF7F2FF15
:10175000BDE83240CDE76061012061698840A06149
:1017600070473069E06070692061B06910F1010F65
:101770007047F06960622062DFF8F40461694069D3
:1017800001F0D9B9BCE5EFF311800021BBE5000001
:1017900010B5DFF8D8440020208101E000F042FAC3
:1017A00060680028FAD06068B0FA80F0C0F11F00CD
:1017B000A16901EBC0006169814209D222696061BF
:1017C0000068206100F1100102F1100001F0D3F86F
:1017D00020890028DFD110BD10B5DFF890442089A2
:1017E00008B1FFF7D5FF00202080BDE81040CAE710
:1017F00038B501F0BCF800B3002407E02146002012
:1018000001F03FFA002100F03CF9641CDFF8BC074E
:1018100000688442F2DB0024DFF8905706E0286B72
:1018200050F82400002100F02CF9641CDFF8CC07EC
:1018300000688442F3D34FF0FF3032BD5FF0000008
:1018400010B594B0FFF79EFFDFF8204401E000F0F0
:10185000E9F960680028FAD06068B0FA80F0C0F159
:101860001F00A16901EBC0006061006820610020D9
:1018700020810220FFF7F1FBFFF785FFFFF782FFD2
:1018800001F060F8206900F1100104A801F073F87C
:1018900014B010BDDFF8D413088801220A80704705
:1018A000002010B558B9FFF76DFFDFF8C04320895D
:1018B00020B1FFF7ADFE08B1FFF76AFF93E710BD57
:1018C00000B1704710B5DFF8A443208920B1FFF7BD
:1018D0009FFE08B1FFF75CFF0020208010BDDFF8FD
:1018E0008C03006970470000201C0020808F0128B5
:1018F00000D0704710B5FFF745FF0446DFF86C03D2
:10190000C168491EC16004D184F311880020FFF72B
:10191000B5FB84F3118810BD70B5DFF8500304697E
:10192000FFF7B8FF0546FFF72DFF0646204600F0FB
:101930003BF9032020752046FFF7D8FF86F3118876
:101940002046FFF705FD284640E00000801C0020EF
:1019500038B500F027F90546A068294646E100B9E8
:10196000704730B58DB002466B46DFF8941604A878
:10197000FFF758FC04A80390FFF704FF0446FFF7A5
:1019800089FF0546DFF8E4020069029000F00CF9D7
:101990000398FFF755FC6846FFF7DAFC0299C1F897
:1019A00018D084F311882846FFF77BFFFFF7EAFE83
:1019B00004460398FFF7E0FC0020039084F31188AD
:1019C000029988610DB030BD40E40000BDE8704070
:1019D00067E70000801C00202DE9F0411646044610
:1019E000B069A0600D46706A984610B9DFF8140619
:1019F00000686062376A17B9DFF80C06076800F004
:101A0000BCFFF26941424AB340B1401E8018084011
:101A10002062381A10180840E06101E02262E76194
:101A20004FF0FF306062A5623069E0627069206348
:101A3000B06A6063B08DA087012804D1DFF86C051F
:101A4000C168491CC1604146204600F01AF80446AE
:101A5000404600F016FD90B1E01C10E020B1C21924
:101A6000521E1140E16100E0E7610246E169606AEF
:101A7000434600F028FD00282062D4D10120BDE8B3
:101A8000F08170B50D4604462B46DFF88025DFF85F
:101A9000801500F06EFF2061284600F0F2FC38BB94
:101AA000012020750020A061A168DFF80005002951
:101AB0000AD50021E160DFF85C150968084420645C
:101AC0002146FFF74AFC13E0A26801219140E16042
:101AD000A168806901F02FF82064FFF7DBFE05465E
:101AE000FFF750FE0646204600F07AF800F002F8B4
:101AF000002070BD86F311882846D2E62DE9F84F04
:101B000004460D46FFF7C6FE8146FFF73BFED4F8BC
:101B10000880A845834638D0002D544E06D5DFF8FE
:101B2000F40400684FF0000A371805E0012000FABD
:101B300005FAB06900EBC507207D01281BD12046BE
:101B4000FFF71AFC206CFFF7E8FB18B17068E1683A
:101B5000884370603069A04205D1776121463868BA
:101B6000FFF7FAFB03E021463846FFF7DDFB70681C
:101B70004AEA00007060A560C4F80CA02764002D3C
:101B800044BF00207061012030818BF311884846EA
:101B9000FFF787FE4046BDE8F28F000048E40000F2
:101BA00000E400000446EDE52DE9F04104462F4D28
:101BB000266C6F68D4F80C80FFF7DEFB3046FFF729
:101BC000ACFB10B127EA080068602869A04204BF96
:101BD000002068610220207501202881BDE8F08185
:101BE00038B5FFF7DFFF05462946204600F003F829
:101BF00085F3118831BD2DE9F041DFF8B0637768D6
:101C000004468846E568206C2146FFF78DFB45EACF
:101C10000700706001202075308188F31188BDE8CD
:101C2000F041AFE580B5DFF8F003DFF8F02300689E
:101C3000904204D1FFF7A7FDFFF753FB0DE0010031
:101C40000AD1FFF7A0FD002001E00098401C0090A1
:101C500000980028F9D000E08047BDE8014091E5F8
:101C60000000000050E40000B7130000C81C002072
:101C7000AC1C002080B500F039FE08B14FF0FF30F9
:101C800002BD00F061BE00F061BE00F057BE38B585
:101C9000044608461146049D1A462B4600F02FFEC6
:101CA0006060284600F0EDFB00B1012032BD00B5B8
:101CB00085B0002101A8FFF7E8FF039804E0009930
:101CC000BE2008700098401C009000986845F6D32C
:101CD00005B000BD00F034BEFFF712BBEFF311807A
:101CE0000021FFF710BB10B5FFF7F6FFDFF8300358
:101CF00041698269C90802EBC10108390161002408
:101D00004FF0FF31016007E02146002000F049FE5E
:101D1000002100F050F8641CDFF8080300688442DA
:101D2000F2DBFFF771BC00005115000054E4000025
:101D300058E40000FEB51746DFF8EC2205460846D9
:101D4000DFF8DC1268821E46C969126851F820105B
:101D5000089C914210D001900021DFF8D002006869
:101D6000009002918F23DFF8C802018800222046EC
:101D700000F095FB0120FEBD00F0A6F8AF60706991
:101D80006860306A10F1010F08BFFF20287400203E
:101D9000318B01B10120B18C09B140F00200E86043
:101DA0002146284600F007F80546204600F069FB6A
:101DB00000B1E81CFEBD38B50446217BB4F9120021
:101DC0008907054602D5217C202907D2A16800F0A9
:101DD000BFF8B4F912004042608209E0DFF8400227
:101DE000DFF85012406A40F82540284600F0B0F86D
:101DF000217C284600F0DCF8207BC00744BF284641
:101E000000F084F80020E06032BD012900D1704765
:101E100010B5B0F91240002C48BF6442204600F0D3
:101E200053F8DFF804020168204600F091F8DFF86B
:101E3000F011496A002041F8240010BD10B5DFF808
:101E4000E001DFF8F421C169DFF8F0010160036807
:101E5000934211D0002302E041F823405B1CDFF8DD
:101E6000E0412468A34207D20F2B32BF52F823402F
:101E7000DFF8B4412468EFE7DFF8C8214168126851
:101E800021F47F4101EB0221DFF8BC2151184160B0
:101E900020218176DFF8B4110968C16010BD1DE70B
:101EA000000000002021EFF3118081F311887047BA
:101EB00080F311887047000040F2000CEFF31180AE
:101EC0008CF31188704700001028DFF884110FD3BD
:101ED000A0F1100252091038012300F01F0001EB9D
:101EE00082018340D1F80001C1F8803118400AE036
:101EF0000F2807D108690A6932F0020200F00200D7
:101F00000A6100E0002000BF704700001028DFF8E1
:101F100040110FD3A0F1100252091038012300F034
:101F20001F0001EB82018340D1F80001C1F80031AC
:101F300018400AE00F2807D108690A6952F0020226
:101F400000F002000A6100E0002000BF70470000BE
:101F5000DFF8CC20D26902EB800002688A4218BF09
:101F60000160704710B5DFF8EC40206900F012FF07
:101F70000020206010BD30B5DFF8D82093694360A1
:101F80005469846025462A78BE2A04D001220021A3
:101F90000160104630BD00220029F8D015F8011B61
:101FA000BE29FBD0691E591A6118F1E7C81C002030
:101FB000DFF89C201028024402D382F8F013704707
:101FC000042828BF82F8141D7047000060E4000058
:101FD000816042607047102804D3DFF87410103815
:101FE000C1F8000F7047DFF838305B6801221A80B3
:101FF000DFF8602112681300FED0104770E4000083
:102000005119000068E400006CE400001919000098
:10201000D91700005CE4000064E40000E312000053
:102020004C1C002024E4000030E400001CE400000C
:10203000422E000065D900001010000008ED00E0FD
:1020400020E4000034E400000000FA0528E4000069
:1020500000E000E04C1C00202DE9F0410446FFF7B1
:102060003BFEFFF717FC0546FFF7D9FA06460020AE
:10207000FEF7F3FF8046DFF86C059A49406AD1F815
:10208000041D01F0FF0150F82170FC60FFF726FEEF
:102090007868B9688847FFF71FFE4046FEF7DDFF06
:1020A00006EB0520BDE8F08100F0FF00FFF7D2BA93
:1020B000000AFFF705BC7CB504460D46E1691646EB
:1020C00019B1206ABE2200F089FE206B01902B46D8
:1020D000E06A00903246A16A206AE4692018001F75
:1020E00000F0B0FE76BDDFF8540500687047704719
:1020F000FFF706B9FFF707B90020704710B504468F
:10210000DFF83C05006800220121204400F059FD61
:102110000020606010BD38B50446534D60682969E1
:1021200088420BD0DFF8180500684FF0FF312044DB
:10213000FFF754F928696060002032BD012032BDEC
:1021400031B94160DFF8F81409680844FFF7A5B910
:10215000704700002CE400000120704700F0A8BE8A
:10216000FFF7CEB8DFF8A015C20744BF01220A600E
:10217000820744BF4FF480720A60400744BF4FF4A7
:102180008030086070470000DFF8C425C30748BFEF
:102190001160830748BF5160400748BF9160704796
:1021A00010B504460020D4E90A2347F6906100F0F8
:1021B0002BFF0123994228BF4FF0FF3010BD10B50F
:1021C0000C4600F099FF011D201AB0F1004F05D810
:1021D000081BB0F1004F38BF8C4200D20C4621469C
:1021E000BDE810400120CFE72DE9F04180460A46C6
:1021F000D8E90A01D8E90C45A0FB026701FB027788
:10220000A6196F41340C002244EA07414046FFF70B
:10221000D6FFC8E90E67BDE8F08180B5DFF8F804A5
:10222000006800281EBFDFF878054068002804D049
:10223000818811B1002100F084F84FF0FF3002BD19
:10224000DFF8D404006800281EBFDFF8540540689A
:10225000002806D0818821B1017B002908BF00F049
:1022600005B8704700000000C81C0020F8B50646FD
:10227000FFF776FF0446DFF82C55DFF82C750120B8
:10228000E861FFF76FFFF96A096A1420884730692F
:10229000B0F5802F34BF0421010C0120FFF774FF3B
:1022A0003A681268232100209047DFF800150120CA
:1022B0000860DFF8FC04016821F4E02141F480317A
:1022C00001600120286084F31188F1BD10B5DFF8AA
:1022D000D004446800F008F86069A169BDE81040C6
:1022E0000847000000E000E001203BE7F8B50446A5
:1022F0000D4600F00BFFD4E90A6732463B4600F07A
:1023000083FE3DB1A6FB002306FB013307FB003330
:10231000C4E90C23F2BD10B5DFF88804DFF894445B
:10232000002101600121C16121602068FFF7DCFF0D
:10233000DFF884140968096A14208847206810BDF2
:10234000000038B50446FFF70BFF05462046FFF7AF
:10235000E2FF85F31188002032BD2DE9F0410546EA
:102360001646EA69984630460F46A96900F0DAFE3B
:10237000B8F1000F3C46766005D0EA690823414673
:10238000304600F05CF8F6686969CFB9079BAA6827
:10239000E86800F0CBF8070008BF00201BD000F071
:1023A000B5F96968396007F10804696849687960B6
:1023B000696849680F6069684F6000F07EF803E063
:1023C0000839204600F0EAFE286810F1010F18BF16
:1023D000206000F023F8BDE8F081F8B505460C4612
:1023E0001646EA69A9691F46304600F09BFE7660F2
:1023F0002FB1EA6908233946304600F020F86869B1
:10240000F668A0F10801204600F0C8FE286810F127
:10241000010F18BF206000F001F8F2BD286908B173
:1024200071682150204670470800194606D01300F5
:1024300004D011F1010F08BF1047104770472DE974
:10244000F843D1F80C80D8F8009004460868154687
:102450001E46AF1BA0EB0902BA4288BF3A4620468F
:1024600000F060FE25606460E519B14588BFB146A3
:10247000E5604A464146284600F064FE2E60BDE80D
:10248000F183DFF84C130978012904D118B1C06831
:1024900010B1012000E00020C0B27047000010B56C
:1024A00084B0089C0294079C0194069C0094DFF879
:1024B00024432468A0471FBDFEE70146DFF8FC0265
:1024C000006800F063BA2DE9F0410546984684B0F3
:1024D0000E4617464046FFF7D4FF044617B9DFF80B
:1024E000F8020768002D12BF2846DFF8F0020068E6
:1024F00043463A46314600F042FA070012D11CB971
:102500004046FFF7BEFF68B9DFF8D40200680090CC
:10251000029601953423DFF8CC0201880022404660
:10252000FFF7BDFF384604B0BDE8F08180B50093E9
:10253000002300F001F802BD70B51D46049B0C4657
:10254000FFF7C1FF060003D02A46214600F046FCF3
:10255000304670BD0A6942604A6982604969C1605B
:102560007047F8B50446DFF8800200680D4617464C
:1025700000F00AFA616800267A1E0A4018BFBE1AE7
:10258000A26873199A4203D2FFF797FF0020F2BDA9
:102590008F19521B921B1944A2606160FFF78DFFD7
:1025A0003846F2BDDFF844020088012800D07047A9
:1025B000E0B50020029001905523DFF83402006856
:1025C00000900022DFF82C0201880020FFF767FF4F
:1025D00007BD00207047C2680A6080684860886054
:1025E000704700004C1C0020DFF80C02818801B10C
:1025F000704738B5012181800024DFF8005204E0E3
:10260000686850F824008047641C28688442F7DB1F
:10261000DFF8EC01DFF8EC5100688047002404E0AB
:10262000686850F824008047641C28688442F7DBFF
:1026300031BDDFF8C401C0887047000038E40000F5
:102640003CE400002DE9F0470D4600268246012DAE
:10265000A4BFA90000F0A6FDDFF89C71DFF8A80177
:10266000C7F800A00024D0F800800CE0DFF89C013F
:10267000006830F8140028B158F82410002088476A
:102680004AF82400641CAC42F0DB0120F880B1461B
:1026900001E009F10109DFF878010068814518DAE5
:1026A0000126002402E000200640641CAC420EDA41
:1026B0005AF8240010F1010F07D058F82410884769
:1026C0004AF8240010F1010FEDD10120ECE73000B1
:1026D000DFD01EB90FF2541000F008F80020386067
:1026E000BDE8F08700BF4FF0FF30704710B50446DB
:1026F00000F00CF8204600F04BF9DFF818010068F4
:10270000BDE810400047000004200940DFF8D80071
:10271000006800F039B9000018E4000038B505463B
:10272000FFF7F4FFDFF8F010DFF8F0304A681B68BD
:1027300001249A4206DA0B6843F822504A68521C78
:102740004A6000E00024FFF7B8FE204632BD0000DA
:102750001820094010B5044600F00AF82046DFF8BA
:10276000C0100968BDE8104008470000FEE7FEE71A
:1027700070B50446DFF84400DFF89C50FFF7C8FF4F
:102780006E6806E0296801EB8601761E51F8041C8C
:102790008847012E2046F5DABDE8704000F0FAB80F
:1027A000441C0020000024438401001080022443C4
:1027B000002009402C200940B0010010A8E40000CE
:1027C000184909680847184909680847FEE770472B
:1027D000AA31000078E400000C1D00208CE4000009
:1027E00074E40000A2310000A8E400009A31000067
:1027F0007CE40000F6300000101D002008E400001A
:1028000090E4000010E400009CE4000098E4000064
:1028100094E40000ACE40000181D0020B4E40000C3
:10282000B0E40000A0E40000A4E400007864632E9B
:1028300072756E74696D652E537461727475703A39
:1028400020276D6178506173736573272065786305
:10285000656564656400000000B587B007216846BF
:10286000FFF7F0FE07B000BDFFF778BC00B581B000
:10287000FEF72FFDDFF8C001C06801B05DF804EB82
:10288000FEF737BF00B581B0FFF7D3FE012818BFB0
:10289000FEF7DEFB0FF21D00FFF740FFFFF7D0FC55
:1028A000FFF718FAFEF7B3FE01B05DF804EBFEF790
:1028B000C5BF000000B581B0FEF7B1FEFEF7EAFF2C
:1028C00001B05DF804EB0320FEF7C7BB10B504466A
:1028D0000320FEF7C2FB2046BDE81040FFF73ABFD9
:1028E000DFF85811DFF8580188617047DFF8FC0005
:1028F000006810B14069C00F704701207047F0B503
:10290000044630208FB00D4600901E4613460196B7
:1029100002AA0021DFF8A801FFF71FFD070009D078
:10292000009602AB2A462146FFF704FA3046FFF72D
:10293000A8FD00B1002738460FB0F0BDFFF71BBB64
:10294000FFF7ADBAFFF70EBBFFF7BEBAFFF7DEBA6F
:10295000DFF89800006810B18069C00F704701204F
:102960007047FFF71DBCFFF73FBCFFF7BFBC01205E
:102970007047FFF7A0BB00F08BBAFFF7B4BB10B5F0
:102980000468A468A04710BDFFF7B2BBFFF7B2BB55
:10299000FFF716BFFFF717BF09B9DFF83411FFF7CC
:1029A0004EBD01EB410208B9DFF8E40200EBC200C2
:1029B0007047F0B58FB004463020149F00900D464C
:1029C0001646019702AA2146DFF8F400FFF705FD3D
:1029D000009702AB324629462046FFF7ABF938464E
:1029E000FFF74FFD0FB0F0BD00000000101D0020EC
:1029F00000B581B00121009100230146DFF80423D6
:102A0000DFF8BC00FFF710FD01B000BD10B588B0C5
:102A100002AA0B990191182100910146DFF82001CB
:102A2000FFF79BFC040008BF002003D002A9FFF7BA
:102A30005EFB204608B010BD801C00204C1C00200E
:102A40000004000010B588B002AA0B99019118216A
:102A5000009101460848FFF780FC040008BF0020F1
:102A600003D002A9FFF74AFB204608B010BD09B900
:102A7000DFF8C012FFF7E3BC74E10000F0B50446D4
:102A80002C208DB00D4600901E461346019602AADA
:102A90000021DFF8A402FFF760FC070009D00096D0
:102AA00002AB2A462146FFF7F2F83046FFF7E9FC71
:102AB00010B100200DB0F0BD38460DB0F0BD0000E3
:102AC00034E1000009B9DFF87412FFF7B8BC000068
:102AD000B0DF000070B58CB0044601932420009054
:102AE0000D46134602AA0021DFF85402FFF735FC19
:102AF000060008BF002005D002AB2A462146FEF79B
:102B000076FB30460CB070BD70B58CB0044600202A
:102B100001900D4624200090164602AA2146DFF8B7
:102B20002002FFF75AFC02AB324629462046FEF748
:102B30005EFB0CB070BD08B100EBC1007047000037
:102B400054E1000010B588B00446002001900B4607
:102B50001820009002AA2146DFF8E801FFF73DFCAB
:102B600002A92046FEF7D2FB08B010BD00B581B027
:102B7000012100914FF0FF3301460022DFF8C4012C
:102B8000FFF752FC01B000BD09B9DFF8BC11FFF737
:102B900056BC30B58BB004462420019200900B4601
:102BA00002AA0021DFF8A401FFF7D7FB050008BF48
:102BB000002004D002AA2146FEF7E6FB28460BB00F
:102BC00030BD30B58BB00446002001900D46242066
:102BD0000090134602AA2146DFF87001FFF7FDFBC3
:102BE00002AA29462046FEF7CFFB0BB030BD00B548
:102BF00081B0012100914FF0FF330146DFF85021F1
:102C0000DFF84801FFF710FC01B000BD09B9DFF89B
:102C10004411FFF714BC01EB410208B9DFF8380199
:102C200000EB0210704770B5044628208CB00D46AA
:102C300000901E461346019602AA2146DFF81C01A9
:102C4000FFF7CBFB334602AA29462046FEF737FDA5
:102C50003046FFF716FC0CB070BD00B581B0012105
:102C6000009100230146DFF8F820DFF8F000FFF7BD
:102C7000DBFB01B000BD000009B9DFF8E810FFF789
:102C8000DEBB4C22514300B937480844704700006E
:102C90008019002070B504463C2092B01546009083
:102CA0000B46019502AA00213048FFF756FB0600AB
:102CB00008D02B4602AA2146FEF78EFE2846FFF7D3
:102CC000E0FB10B1002012B070BD304612B070BDF4
:102CD00070B504463C2092B00D4600901E46134647
:102CE000019602AA21462148FFF777FB334602AA44
:102CF00029462046FEF770FE3046FFF7C2FB12B0B1
:102D000070BD00000B1E000010B58AB002AA0D991C
:102D100001912021009101461548FFF71EFB040098
:102D200008BF002003D002A9FFF714FC20460AB018
:102D300010BD0000E0DF000094E10000CCE00000E6
:102D4000B4E10000D4E10000F0E00000F4E1000094
:102D5000AB1300000CE00000101A002014E2000089
:102D6000F11600003CDF0000781A002034E2000079
:102D700054E2000010B5EFF31484002C1CBF0021B6
:102D800081F314888047002C1CBF022181F3148832
:102D900010BD000000B5EFF3038212F0FF0F0DD05D
:102DA0006A46A2F1200282F309886FF0020E1060D9
:102DB0004FF08071D1610849916170475DF804EB73
:102DC000694681F3098880F308884FF00200EFF329
:102DD000148180F314887047BD2D000062F30F2228
:102DE00062F31F42401810F0030308D0C91A1FD322
:102DF000DB0748BF00F8012D28BF20F8022D130083
:102E000030B414461546103928BF20E93C00FAD8E2
:102E1000490728BF20E90C0048BF40F8042D89006D
:102E200028BF20F8022D48BF00F8012D30BC7047A4
:102E3000C91818BF00F8012DCB0728BF00F8012DD5
:102E40007047220040F8043D40F8042D40F8041D6E
:102E5000019940F8041D009940F8041D0B4940F801
:102E6000041D81EA0101A1F1010140F8041D40F8AF
:102E7000041D40F8041D40F8041D40F8041D40F8EE
:102E8000041D40F8041D40F8041D7047A12E0000E9
:102E90002DE9F04FC0F800D0D1F800D0BDE8F08F98
:102EA0000498804700980199029ADDF80CE01047D9
:102EB00010B54048046814F1010F08BF002400F069
:102EC000DDF93D490020086001203C4908603C498B
:102ED000086000F0A3FB3B48006820B13A48006856
:102EE000204600F01CF83949394A0020086039486A
:102EF00001686FF31B411143016037480168C1F35A
:102F00000131012906D10168344A114041F40032EF
:102F100002600160324800680028FBD110BD70B526
:102F200005463048012101602F4909680029FBD07E
:102F30002E4C2F4AC021216053682E499B075DBF4C
:102F400013681B0C43F0F00372230B700021016324
:102F50009668304600F09CF93146284600F0CBF9DF
:102F60002548816D89B240F20F22914213D2016847
:102F70000068C1F30361C0F3034001B1491E072893
:102F800005D006280EBF0720801C00F00F0041EA84
:102F900000101A490870304600F01CFA18490968F8
:102FA000C968022088474020206001201549086038
:102FB00070BD00001C130050840460425C600C4033
:102FC0000822044380012843000120438C2108404B
:102FD000000039014820034004000940FFFFFCFCC9
:102FE0000C006842101009409402224300600C401B
:102FF000AC3F005056620840BC12005002600840CE
:10300000A0010010940460421B4213D1094236D142
:103010002AB18446B0FBF2F002FB10C2704700F008
:103020006DBBFCD30022002370470B00020000217F
:1030300000207047904271EB030CF6D370B5B1FAE3
:1030400081F4B3FA83F52C1BA340C4F1200532FAB6
:1030500005F63343A2405FF00046E64002E05B081D
:103060005FEA3202841A71EB030524BF2046294629
:103070007641F4D302000B003000002170BD012A1C
:10308000CFD970B5140C20D0B1FA81F4B2FA82F520
:10309000C4F120046419B4F12006D6D3B2405FF025
:1030A0000044F440002502E052085FEA3303C61AE8
:1030B00071EB020E24BF3046714664416D41F3D37B
:1030C00002000B002000290070BD0C46B1FBF2F19C
:1030D00002FB11452D0445EA1045B5FBF2F402FB55
:1030E000145580B240EA0545B5FBF2F002FB1052E0
:1030F00040EA044070BD0A0009480168426803685C
:103100009942FAD1100C40EA0140704710B5044AC8
:10311000136850681468A3421946F9D110BD000025
:103120000820094062B38B0708D0521E11F8013BFA
:1031300000F8013B00F024808B07F6D1830740F0B4
:10314000208000BF103A07D330B4B1E83810103AED
:10315000A0E83810F9D230BC530724BFB1E80810FA
:10316000A0E8081044BF51F8043B40F8043BD207E4
:1031700024BF31F8022B20F8022B44BF0B780370D8
:103180007047083A07D3B1E80810083A40F8043B02
:1031900040F804CBF7D25307E4E701000022FFF721
:1031A00021BE0900002200F0AFBA010030480068DB
:1031B000000C00F00700052828BF4FF0FF307047D3
:1031C0002C490A68C2F30F324BF69A139A424FF019
:1031D000FF3006D10868000F0B280CBF0420002028
:1031E00070474BF6BE118A4201D1012070474BF661
:1031F00041318A4201D1032070474BF620318A4287
:1032000008BF0220704700001A48F8B50068050F93
:103210001948006800F0FF06802E28BF0026FFF73F
:10322000CFFF04284FF0FF3406F10A071DD8DFE86E
:1032300000F003121A1A1B00012D12D0032D06D024
:10324000072D06D0082D08BF06F116040DE0142442
:103250000BE0152409E025B1022D08BF06F1140486
:1032600003E00A2401E005B93C4660B2F2BD00006B
:103270009412005018130050A010005080B5FFF7B2
:103280009FFF20B9FFF7C0FF162800DB01BDFEE756
:10329000DFF8E8130968C1F304611629A8BF2039D3
:1032A00001EB2071491C1629A8BF152104DA6FF023
:1032B00009029142B8BF114601F01F01DFF8C02397
:1032C00041F4F8511180DFF8BC13096889074FBF3A
:1032D00040F040600021DFF8B0231160DFF8AC134C
:1032E000C0F3C06282F00102C0F380600A6080F027
:1032F00001008860704770B5054682B0084600F04E
:10330000EEF80246DFF88843182100F060F800F07C
:1033100012F980B20090002340F2FF322C212046A7
:1033200000F051FADFF86C63F068C0F30D021C2165
:1033300000F04DF8706800F0FC32142100F047F8FE
:103340003068DFF85413DFF8546301EA00021021FB
:1033500000F03DF8284600F0F8F802460C2100F095
:1033600036F8284600F01CF9400040F0200030728A
:10337000284600F01EF940F010003072284600F098
:1033800021F90246282100F022F8284600F0FFF833
:10339000400040F06000F072284600F02DF9C000B7
:1033A00040F080003070284600F02FF98000BC49C2
:1033B00040F47C400880284600F011F902460821BC
:1033C00000F005F8B7494FF48000086073BD20464F
:1033D00000F0F4B9F8B5810C01F003010129B24CF9
:1033E000B04D02D002292AD026E0216A8A0323D4D4
:1033F0004FF480422A606FF08F06AC4AD2F8023058
:1034000033404E0A06F080063343C1F3033633439C
:10341000C2F80230C1F30326D2F801301B0946EA94
:103420000313C2F801306FF0E7061368334001F070
:10343000E7011943116002E04FF0004129609C4E02
:103440009C4AB16809075CBF4021A9624FF4007132
:103450002964800D216AC90C01F0030141F030019B
:1034600010F00300117003D0022826D008D326E004
:103470000121042000F0CAF98F4800F0F0F822E0A2
:10348000012000F0E5F907463946042000F0BEF9B6
:10349000042000F0DDF9B842FAD1366826F07F400A
:1034A00000F0DDF8854B1B681B684FF06022072198
:1034B000300E98474FF480602860032100E002211D
:1034C000042000F0A3F920687D4900F03F00087057
:1034D00047F618007B4908807B480068F1BD7B49AE
:1034E0000968C1F383628303C1F38F2120D40004F0
:1034F00000164FF6FF7307E0490804D11946520839
:1035000004BF01220121401C0028F5D401280FDB53
:10351000490041F00101B1F5803F21BF0121520076
:1035200042F00102102A24BF0F221946401EEDE787
:1035300041EA024070476548016800680002C1F333
:10354000870100F440700843704730B5604C614912
:103550000A686568ED07C2F30351C2F303430AD456
:103560002468250501EB2571240481F3040103EB94
:10357000247383F304031B0443EA015193B21943F8
:10358000222824BF02F080400143084630BD0021BC
:10359000202803D350480068C0F301510846704703
:1035A0000121222803D34D480068C0F3007108466A
:1035B00070470121222803D348480068C0F34071B6
:1035C000084670470021202807D343480068C10CF3
:1035D00001F44071C0F3845001430846704720282D
:1035E0003F4907D33C483F4A0068810A02EA00305D
:1035F00040EA8151084670470021222803D337480A
:103600000068C0F3C061084670470021222803D338
:1036100032480068C0F34551084670473248006898
:103620000028FBD13148324A416812688908890074
:1036300041F0005141F00401520748BF41F001013F
:103640000BD4026812F0030F07D041F0030242606E
:10365000026802F00302032AFAD14160704725494B
:1036600082B20A60C0F307404860012088602248A7
:1036700000680028FBD0002088607047B812005016
:103680006E6208400000094094042A430000204371
:1036900000A00C4070130050FFFFFC0041A10C4043
:1036A000DCA10C4040A00C406C1300500A600840A4
:1036B000A83F005008A10C40BD378600B40100109F
:1036C0000BB00C4070B00C402C200940501300503F
:1036D000AC3F005078130050981300508C130050EA
:1036E00000803F4000F03F000C0068420040034073
:1036F000B03F00503C600C4084088C437047000091
:1037000062F30F2262F31F4200B500BF130096461A
:103710009446103928BFA0E80C50FAD85FEA417CE3
:1037200028BF0CC048BF40F8042BC90728BF20F8A9
:10373000022B48BF00F8012B00BD000070B5044605
:103740000D46164600F03AF9401E8041C00F1A4956
:103750000A68002AFCD0012E02D0022E02D003E01B
:10376000257002E0258000E0256001220A60002823
:103770001CBFBDE8704000F025B970BD38B50446E7
:103780000D4600F01BF9401E8041C00F0A490A682F
:10379000002AFCD0012D02D0022D02D003E02478B3
:1037A00002E0248800E0246801220A6008B100F0E9
:1037B00009F9204632BD000000800C400B4611463E
:1037C00004221818BAE710B500EB4100102B14467C
:1037D00000F5007002D3103B001D240C02999940A3
:1037E00041EA0441BDE810400422A7E738B51D4670
:1037F0000818102D144602D3103D801C240C022101
:10380000FFF7BCFF204080B2E84032BD70B50446EF
:10381000E00782B00D46624E05D5A8B200900023A5
:10382000012200F011F8A00705D5A8B200900123ED
:10383000022200F009F8600705D5ADB20095022319
:103840000C2200F001F873BD00213046FFF7BBBF2A
:103850000146042907BF1D234FF0C0421C234FF02F
:1038600080524F483421FFF7C1BF38B50546FFF7F6
:1038700043FC4C4CA168401A4FF47A71484305EB65
:10388000104500F0A7F82169401A48BF404240F6B1
:10389000B9318D4207D2062805DAA068E168814275
:1038A00001D322685AB940494A68D2074FF4FA60F6
:1038B00017D4086800F0FF007D21484308E0081A8B
:1038C0003A494843000C00EB9000904238BF104644
:1038D000C82801D2C82032BDB0F57A6F88BF4FF436
:1038E0007A6032BD80B501210320FFF78FFFFFF71B
:1038F00003FC2C49886001BD80B50120FFF7A8FFBB
:10390000012819D00023012234212548FFF76EFF3A
:1039100098B100F026F8FFF7EFFB22498B680A68A0
:10392000C860A2EB9202C01A204B5843000C0860FA
:10393000904238BF10460860012002BD10B500213A
:103940000320FFF763FF0120FFF782FF08B100F0BB
:1039500008F8144CFFF7D0FB606000F03BF82061E2
:1039600010BD1348006800F049B810B511490A6845
:1039700011490968140424161B384443E41004EB6D
:103980002244120600FB00F3121609065A4358435C
:10399000091604EBA222484302EBA04010BD000030
:1039A00000A00C40BC340020AC3F005040420F004F
:1039B0008000001090130050A4100050EFF310800E
:1039C00072B67047EFF3108062B670470138FDD1D0
:1039D000704770470748084A81681278006852B2F9
:1039E000A0F54070C9035043C913A1EB20108030EB
:1039F00000127047285009400C13005070B504465F
:103A0000FFF7DCFF451EAD41ED0F074E3068002883
:103A1000FCD0A04701203060002D1CBFBDE87040E5
:103A2000FFF7D0BF70BD000000800C4020B108231C
:103A300028220021FFF7EAB8704720B1082330227E
:103A40000021FEF7A9BF704738B500F091FF256847
:103A50000DB129682160FEF72BFA284632BD70B5FA
:103A600004460D462668002028601EB9FEF71AFAA3
:103A700025600DE0FEF716FA00E03668316800298F
:103A8000FBD1AE4203D1FEF713FA002070BD3560C2
:103A9000FEF70EFA012070BD0022DFF8541C01EB86
:103AA0004211CB7F1B0605D5B1F91C30834201D1F1
:103AB00008467047521C082AEFDB0020704770B59B
:103AC0000646FEF7EFF9DFF8545C0446A87E0100D5
:103AD0001AD0401EA876C0B2B0B9082100F026FC6A
:103AE00096B1A86B7030FDF7E3FB00F010FE301AC2
:103AF000B0FBF1F1022938BF0121EC352846FDF772
:103B0000E6FB2846FDF7CAFB204600F065BE10B56F
:103B10000446207B00F00F0002280FD100F012FDB8
:103B2000A168081ADFF8F41B896BC968800801F5E1
:103B30007A71814238BFB0F1405F00D3002010BDE0
:103B400038B5DFF84C0ADFF84C2A0168DFF87C4C06
:103B500002EA0105E9430160A90608D5406880062C
:103B600005D54FF4005104F14C00FDF7E8FD15F4C4
:103B7000602F08D0206905F46021084320610021EE
:103B800004F19C00D0E131BD70B5FEF78BF9DFF890
:103B90003C4C0646206910F4602F27D02069C501EF
:103BA0002D0EE80748BF002506D4A80748BF012509
:103BB00002D4680748BF0225681D40B200F040FFEC
:103BC0002069012105F111029140884320613046AE
:103BD000FEF76EF904EB85004668300009D02068D6
:103BE00000224FF00063691DB04702E03046FEF747
:103BF0005FF9206930B104F19C00BDE870400021FC
:103C0000FDF79DBD70BD70B500F078FFDFF80C5B6F
:103C1000DFF8BC4BAB6A024690071DD4D3E9040120
:103C2000104007D0EB629969084398614FF48041D6
:103C300000F07CFBA86A002847D16E6A002E44D0B1
:103C4000F068A96B884224D005F14C00BDE87040B3
:103C50004FF48051FDF773BD0BB9A86AEAE7002065
:103C6000A862D3E904019E69024042F00202324395
:103C70009A61626982436261E26822EA0100E0605F
:103C8000194605F13000FFF7EAFE022100F04EFB75
:103C9000E3E7B068FFF73BFFA86408B1A86CD8E081
:103CA000D6E90401626902436261E26841EA020006
:103CB000E0600020E061B0682060E0690028FCD08E
:103CC00005F12400FFF7C0FEAE6270BD0020F6E6ED
:103CD000F8B506461446376E1D4607B1B847A0072B
:103CE00008D4D6E91601204029400022914208BF9D
:103CF000904207D0C6E91A4506F13800BDE8F24007
:103D0000FDF7CBBBF1BDFEE780B5FDF7D4FCDFF8D6
:103D1000BC2A0146906BD26BBDE80840104710B535
:103D2000DFF8A84A0FF23111E06B884202D1FFF7A9
:103D3000EDF9206404F14C00BDE810400421FDF7CA
:103D4000FEBC80B500F0DAFEDFF8881A084207D022
:103D5000BDE804404FF00051DFF8100CFDF7EFBC58
:103D600001BD70B5040073D0A168202001E049684E
:103D7000401E79B1C2B26AB10A8840F603039A4282
:103D80001CBF40F604039A42F1D1E06818222030AB
:103D9000FFF7D8F9A0690021A1616168D9B140F0AD
:103DA0000202E07F002300F00700012807D002286C
:103DB00009D0042804BF00224FF0805306E00022FF
:103DC0004FF0005302E000224FF08043B4F91C1082
:103DD000E0686568A847FEF765F8DFF840590646D1
:103DE000E88E401CC0F30B00E8860020296BC877E2
:103DF00005F13000FFF728FE3046FEF759F8B5F917
:103E00003610E06800F1B802B2F90030994204BF00
:103E1000297E00291CD1917809B9016811B90020C7
:103E2000907016E0AA6B126812F1010F10D0DFF843
:103E3000F42B1268B1FBF2F1022938BF0121703076
:103E4000FDF745FAE068BDE870407030FDF726BA2E
:103E500070BDBDE8704032E638B50D46A807DFF802
:103E6000BC4816D5206BFFF77CFF206B25F00205C0
:103E700010B145F0020109E0680702D4606A002829
:103E800051D004F1EC00FDF713FA042104F14C00C9
:103E90004AE0680747D5606A08B1C068A063A06BB4
:103EA000DFF8E42A41680B781360126809788A42C7
:103EB0001CBF8569002D05D000224FF000736FF004
:103EC000FF01A847022000F09BFF112000F0ADFF8A
:103ED00001206077A06BE17E007C084204BF0E20C9
:103EE00000F0A3FFA06BDFF8E81840688268002AA2
:103EF00004BFC068002804D00020C861DFF8D80AD9
:103F0000086040F2FF70DFF8D42A1060002088615A
:103F1000DFF8C00848610FF21900E0631920BDE81E
:103F20003240FDF7F3BF31BDBDE83440FDF707BCBB
:103F30002DE9FF478046880040F1B580DFF8DC5767
:103F4000A86B40684068010018BF8047A86BDFF885
:103F5000809840688168002904BFC168002914D096
:103F6000D9F81C100029FBD00021C9F81C1080686A
:103F7000010018BF8047A86B4068C068010018BFE7
:103F80008047DFF8B40A00F0C1FD0020C9F81C002A
:103F900040F60A0ADFF8A40ADFF8E07AC9F8000060
:103FA00008F10804012000F0F9FD0FF25110E86358
:103FB000A7F800A000207880002100F0B0F900F000
:103FC000A7F9206806467180E97E09B1617A99B146
:103FD000018840F60202914205D1318A4FF60F4224
:103FE0001140318204E0318B4FF60F421140318392
:103FF0000021617200F0C0FD2068694600F0AEFD4E
:10400000684600F0BAFD00E00646706800281CBF54
:1040100001885145F8D1776040F60301707B00F0CC
:10402000F0007073686A8068008888421CBF40F6A0
:104030000401884202D10020286417E0208BA8B137
:1040400000206083E06108F12C00017801F0F001AC
:104050000170417801F0F00141F00101417008F177
:1040600020007860787B00F0F0007873D9F81C00AD
:104070000028FBD00020C9F81C000120FFF7E8FB56
:10408000012808D0707B00F0F00040F00100707350
:104090000FF21900E8634FF6FF322068018A1140E1
:1040A0000182C9F80000BDE8FF870000DFF8D009F1
:1040B000014200D17047012010B5FFF7C9FB01286C
:1040C000DFF8584608D10FF23500DFF80417E06337
:1040D000DFF8A809086010BDDFF848190968322028
:1040E000B0FBF1F1022938BF0121EC342046FDF785
:1040F000EEF82046BDE81040FDF7D0B82DE9FE43AC
:1041000006460C466004DFF8145619D5FDF7CAFEC2
:10411000EE6AB769B9070ED46EB10021B161FDF73F
:10412000C7FE706848B1B6F91C10F06876683A4668
:104130000023B04701E0FDF7BBFE24F48044E1E03A
:10414000A0070AD5286BFFF70CFE286B002824F087
:10415000020401D044F00204D4E0A00005F180087C
:1041600040F60909DFF8147971D5B068018840F686
:104170000202914205D1028A2D2161F309120282C5
:1041800004E0028B2D2161F309120283286CB8B17F
:104190000420FFF75DFB98B1FEF7B8FF296C814260
:1041A00028BF401E401A718A11EB1030F06040F2B7
:1041B000D761A0F2EE20884224BF40F6C410F06020
:1041C000D6F818C0BCF1000F1CBFDFF8BC188C4536
:1041D0000DD0787B0F21084204BF708C484506D172
:1041E00000224FF000736FF480713046E0470022E8
:1041F000DFF898184046FDF7EBFE287F50B102200B
:10420000ADF80000684600F081FCBDF80800A88207
:104210000020287701206876A87E401CA876002020
:104220006877686A18B11920FDF7D5FE01E044F0FF
:104230000204D6F81480B8F1000F05D000224FF028
:10424000806300213046C04724F000545AE095F8BE
:10425000200024F0080628B1200703D5002085F8A7
:1042600020003CE020073CD5002068760120A8779C
:10427000002000F093FC0FF2BD00DFF81418DFF807
:104280006047E86300224046FDF7A2FE297FE87EF2
:1042900081F00101084202D10120E8760FE0A86C0C
:1042A000B8B1FEF733FF296C6A6C401A02EB10308C
:1042B0006864A96CB0EBC11F0BD300206864A7F839
:1042C000009000F025F80020788000F028F82760A2
:1042D00003E04FF0005100F029F800202864344634
:1042E00010E0A0040ED5AE6A002E1CBF7068002836
:1042F00006D0B6F91C10F068766800222023B0477B
:1043000024F4005414B1214600F010F8BDE8F783FE
:10431000787B00F0F00040F0010078737047387B44
:1043200000F0F000387300207860704705F14C0011
:10433000FDF705BA70B505460E46B007DFF8DC4359
:104340000BD5206BFFF70DFD206B08B1022129E092
:10435000B0002DD54FF0005124E0B00028D500F07A
:10436000E2FBDFF83007DFF83067E063307818B938
:1043700005F13800FDF791F8DFF8601600200860BD
:10438000022000F0D3FC112000F0E4FC287C10B9DE
:104390000E2000F0DFFC0020E083B07840B1002068
:1043A000B070042104F14C00BDE87040FDF7C7B9BE
:1043B00070BD30B58DB000F03AFCDFF8E006DFF8F4
:1043C000E0460168DFF8545341F00201016001A8A2
:1043D000FFF72CFBA078DFF8CC160790002301AA8A
:1043E00005F14C00FEF71FFC01A8FFF726FB00209B
:1043F000ADF81C0001AB2078DFF894260990192154
:104400000020009005F18000FEF7D3FA01A8FFF725
:104410000DFBE078DFF890160790002301AA05F164
:104420009C00FEF700FC01A8FFF707FB0120ADF898
:104430001C0001AB6078DFF8742609901A21002077
:10444000009005F1D000FEF7B4FA00230022DFF857
:10445000601605F1EC00FEF757FBDFF83806E8635D
:104460000DB04FF6FF70A882012028770020E87574
:10447000E8766877E88385F82000286430BD2DE968
:10448000F041DFF81466044630788EB00F4690464F
:104490001D4618B9FFF78DFF01203070002F1CBF9B
:1044A0006760B8F1000F4BD0C4F80880FDF7FAFC44
:1044B0007178002942D101217170FDF7F9FC35B9FD
:1044C00009A80FF224611422FEF73CFE09AD28680A
:1044D00020606868E060287C2074A8686061012022
:1044E0006074688A6082E868010018BFA061A0213A
:1044F00004F12000FEF756FE08232422002168461E
:10450000FEF742FB01208DF818006A46002104F1F5
:104510003800FEF756FB0823242200216846FEF7E8
:10452000D1FA06946B460022DFF8881504F170007A
:10453000FEF7EAFA20460EB0BDE8F081FDF7B8FCC0
:104540000020F8E738B5FDF7ADFC7449497E31B17C
:10455000DFF868150C68FDF7ABFC204632BDFDF7AF
:10456000A7FCFEF7D3FD10F50030DFF8542541F12C
:104570000001A2FB0045DFF80C0502FB01550169B3
:104580000020221845EB0103184632BD0000000050
:104590000810044020000E002DE9F84F04460E4696
:1045A00092469B46FDF77EFC5C4D8046B5F9340093
:1045B000B5F93610401AC0F30B0008286FF0010956
:1045C00044DAA88E401CC0F30B00A886B5F934006D
:1045D000ADF800000020464901EB4017F97F0906BD
:1045E00004D5401CC0B20828F5DB002704F1700098
:1045F000FCF75EFEBE6087F81EA0C7F804B020215D
:10460000BDF80000B883FC60DDE90A23DFF8B404DC
:1046100010401940C7E90401B8340020F87740F68B
:10462000FF76686A0028394605F1240006D0FFF7B6
:1046300016FA30B100F05EF840464BE0FFF70FFA93
:1046400040B9A88E3018C0F30B00A88600F070F9AE
:1046500048464AE000F04EF8E87F697E084208D0FC
:10466000012085F820000020E8772877A87E401CEC
:10467000A87600F05DF9A86A002834D1687E18B1E8
:104680001920FDF7A8FC2EE0687F60BBFDF70AFC4F
:104690000446A87F20B1DFF800140120887018E0DC
:1046A000B868FFF734FAA864B8B100F030F8AA6C23
:1046B000121AB2FBF1F2022A23BFAA6C101AB0FB45
:1046C000F1F10121EC352846FCF701FE2846FCF704
:1046D000E5FD2046FDF7ECFB05E02046FDF7E8FB95
:1046E0000421FFF723FEBDF90000BDE8F28F0000B2
:1046F000501D0020BDF800002080F87F40F08000B1
:10470000F877A07810B10020A07028777047A86BC8
:10471000DFF81013C068096870470000D82D00202A
:104720002DE9F04106460F4614461D46FCF777FF7B
:1047300080463846FFF7B0F9070003D14046FCF742
:1047400072FF0AE0F87F0721084209D04046FCF7D3
:104750006AFF0721F87F0842FCD10220002116E001
:104760007968DFF86403814202D079683166786045
:10477000C6E916454046FCF756FF4FF0FF3106F1FB
:104780003800FCF72BFE00203066D6E91A01BDE8A0
:10479000F081DCB5DDE906670446CDE90067180065
:1047A00008BFDFF824332046FFF7F6FE002803D5C4
:1047B00000204FF00041DCBD0146204602B0BDE8BC
:1047C000D04002224FF0E043AAE70000D82D00209D
:1047D0000010044002000040BDE87040FDF768BBD7
:1047E00001E042F002022DE9F843DFF8CC42606AB2
:1047F0000090894603271546FDF754FB19F1010F78
:1048000005F0010680460AD1A06A002819BFA06AF7
:10481000B0F91C90E08E00F101090020E0750FFA5C
:1048200089F0FFF739F9010070D0A06A814205F0E4
:10483000020525D1280003D0606A00900020606244
:104840000122C87FB2401043C877FCF7E8FE074654
:10485000002E14BFDFF87402DFF8740200F056F97E
:1048600000F066F825B906E000F055F800F05BF8B6
:1048700000980028F8D13846FCF7D5FE832747E09A
:10488000009A8A4204F1EC0016D1FCF711FD2800D1
:1048900012BF0020606A0068606200F049F800986A
:1048A00000F039F800F03FF8009818B32800F6D16E
:1048B00020E0009A12680092009AEAB112688A42D7
:1048C000F7D1FCF7F5FC009800681DB1009A0021B3
:1048D000116004E00168009A1160002101600090FD
:1048E00003E000F018F800F01EF800980028F8D156
:1048F00000F01EF8832701E000F01AF8607F38B955
:10490000022104F14C00FCF71AFF01E000F010F85E
:104910003846BDE8F283C07F009940F00400C877B4
:104920006846FFF791B8014604F13000FFF797B8E9
:104930004046FDF7BDBA38B500F01AF805465E48A6
:10494000407E68B1204600F0E1F8044600F04AF8E5
:1049500004F0FF00012801D1812032BD022032BDC8
:1049600000F040F8012032BD00000000242E00209D
:104970000446FDF797BA0A464F49896B884201D031
:104980000320704709E00000D02108400A464A4948
:10499000896B884201D00320704700211046CAE786
:1049A00070B545498A6B90426FF07F0411D1487E03
:1049B00078B1FDF777FA0546464800F0A7F80646B5
:1049C00000F010F806F0FF00012802D130020016B6
:1049D00070BD204670BD0000510007060000046055
:1049E000001004402846FDF763BA70B50E46154620
:1049F000FDF758FA832430491EB1022E0DD005D39D
:104A00000EE08A6A3AB1896A898B02E00A7F12B99C
:104A1000898A298005E0802403E0497E297000E02E
:104A200003245BE044E4000080B50846FFF734F857
:104A300000B1806802BD00000100070601010E04FC
:104A400038B5FFF795FF1C49CA7D520702D58B7D0B
:104A50009C420FD001228B8A02FA04F52B438B82F1
:104A60000C341D4B1D68A24025EA02021A601A6828
:104A700002B90A76BDE83240FDF71ABAE82E0020E6
:104A800004000020E82E0020073D0000073C000045
:104A9000433D0000593E0000DC3400200020094066
:104AA00010D80000093D0000893B0000413B000098
:104AB0001F3D0000CD3C0000D82D002004300440F4
:104AC00000093D00F1EFFF9FD13C0000010002040E
:104AD00001000104010003040C100440FDF7E8F993
:104AE000204670BD00000000FFFFFFFFC40900006A
:104AF00000000000073D000001001A01214908687C
:104B0000C2430A600A680242FAD170471E490A6825
:104B1000002AFCD1CA610860C8690028FCD00020C6
:104B2000C86148687047194801686FF00202114077
:104B300041F40071016003211548816041F23001A8
:104B400041610121C160502141610121C1604FF4E7
:104B5000CA6141610121C160016070470D4802686E
:104B60000A6082684A60C2688A60406B20F07840C0
:104B700040F08050C86070477047014610220648D8
:104B8000FEF7D0BA1010044000100440000004608A
:104B9000004104404C1300501800002170470000F1
:104BA00020B1082324220021FDF78CBF704780B577
:104BB0000120009009234FF400720021DFF808075C
:104BC000FEF701FE01BD80B5002301223421DFF88C
:104BD000F806FEF70BFE00B10120C0B202BDDFF8FF
:104BE000EC0680687047DFF8E416401890F8ED0096
:104BF00070470022022904D1012806D140F2EE229A
:104C000003E0012808BF4FF47A7210467047DFF8BE
:104C1000BC06D0F8DC007047DFF8B00690F8E6106C
:104C200021B1D0F80C01010018BF004770472DE9F1
:104C3000F041DFF8988608F1E1058AB0A8790028EC
:104C400061D10120A871DFF88866DFF88876307BB3
:104C500068717068C8F80C0101A8FFF7A1FF002077
:104C60000690ADF81400079001AB00220FF2F54159
:104C700008F10C00FDF748FF01AB00220FF2A15133
:104C800008F13000FDF740FF01AB00220FF2D941DF
:104C900008F15400FDF738FFB16801208847DFF8BC
:104CA000380600787868C0F38154707B20B1032CFB
:104CB00002D10120287003E0032C18BF022C16D16A
:104CC000022000F09DF8032CDFF810160CBF4FF403
:104CD0007A7042F210700968B0FBF1F108F15400EB
:104CE000FCF7F5FA08F15400FCF7D8FA05E0012CBE
:104CF00003D100F063FAFFF75AFF386840075CBF42
:104D0000002000F07DF80AB0BDE8F08110B508B1D0
:104D1000140001D1022010BD8160C2600361014610
:104D2000DFF8A80500F028FB002010BD10B50446F0
:104D3000FDF7B8F8DFF89415621892F8E8305B1EBA
:104D400082F8E830DBB223B98A680123A3409A4392
:104D50008A6066E02DE9F0410546FDF7A3F880463C
:104D6000DFF86815681890F8ED20521E80F8ED20E5
:104D7000D2B2002A3FD10FF2A050DFF8644500EB19
:104D800085052E786F88300615D52168096A384662
:104D900088472168896A384688472168096B384600
:104DA0008847DFF8401501200860DFF83C050068FF
:104DB0008007FAD512E0700606D501EB87010020C6
:104DC000D1F80011884709E0216889693846884789
:104DD0002168496B384688470228F9D106F03F0020
:104DE0003F2818BFFFF7B6FF687800F03F003F2864
:104DF00018BFFFF7AFFF4046BDE8F041FDF758B8D8
:104E000010B50446FDF74EF8DFF8C0148A68012398
:104E1000A3401A438A60611891F8E820521C81F877
:104E2000E820BDE81040FDF743B8F8B50646FDF7A9
:104E300039F80446DFF89454701990F8ED104A1CC4
:104E4000002980F8ED2039D10FF2CC4000EB860725
:104E5000387800F03F003F2818BFFFF7E6FF78786A
:104E600000F03F003F2818BFFFF7DFFF7E8838784B
:104E7000DFF86C7401060ED53968C9693046884779
:104E80003968496A304688473968C96A3046884770
:104E900000F019F812E0400606D505EB8601012066
:104EA000D1F80011884709E03968496930468847D8
:104EB0003968496B304688470128F9D12046BDE85A
:104EC000F240FCF7F5BFDFF81C1401200860DFF8A2
:104ED000180400688007FAD570472DE9F04F0024C8
:104EE00083B04FF0000A0128D04618BF012664D1D4
:104EF000DFF8D893D9F8DC0001285DD10220C9F889
:104F0000DC00FCF7C7FC0090012000F062F906000D
:104F100054D1FCF784FBDFF8D81301900C6001201A
:104F2000FEF796FC012804D1002000F0A7F94FF00D
:104F3000010ADFF8C013DFF8B4030C600068112029
:104F4000FFF751FE08B14FF001081020FFF74BFEAC
:104F500008B148F002080F20FFF745FE08B148F0FD
:104F600004080B20FFF73FFEDFF8746320B13168BF
:104F7000096B4FF4806088470A20FFF734FE20B1A8
:104F80003168096B4FF481608847DFF85813DFF808
:104F90006873DFF868B30120086048F020003168CA
:104FA00089698847DFF858130120086099F80800DC
:104FB000C00707D5012416E0042673E00120C9F8D4
:104FC000DC006CE0584600F0F9F90546042DF9D0F4
:104FD000012D04D1326A526803215846904738683F
:104FE000800880003860002000F0F4F9BF480068B5
:104FF0003068806B804754B9012D04D1326A526801
:10500000012158469047386840F00300386001207D
:10501000B849086040463168496988470B20FFF766
:10502000E2FD20B13168C96A4FF4806088470A20E8
:10503000FFF7D9FD20B13168C96A4FF48160884714
:10504000A849012008600020AD4908600320C9F884
:10505000DC003168496B404688470128F9D10420BB
:1050600000F0B7F8A24901200860A0480068A548F0
:1050700000688006FBD5BAF1000F1CBF012000F0CC
:10508000FDF8FEF79FFC082000F0A3F8064601207B
:10509000C9F8DC000198FCF7C6FA00F06BFA00983A
:1050A000FCF7FFFB3046BDE8FE8F38B50446FCF741
:1050B000F9FE05462146854800F072F928464BE086
:1050C00030B5002401288BB004D021D303281DD093
:1050D00018D31DE001A8FFF763FD7C4D8A490694B3
:1050E000ADF81440079401AB012205F17800FDF7FB
:1050F0000BFD00940023854A2C2105F19C00FDF74F
:1051000058FC05E000F0C2FA044601E000F064FB40
:1051100020460BB030BDFEF7A8BB38B5FCF7C2FE89
:1051200005466A4890F8E000012410B1FFF74BFDF6
:1051300004462846FCF7BCFE204632BD38B5FCF7D5
:10514000B1FE624D044695F8E00020B1FEF7D4FBB5
:10515000002085F8E0002046BDE83240FCF7A8BEFC
:10516000000000007047000010B582B00420FEF778
:105170006FFB022818BF032807D100F01FF8FFF7C4
:1051800016FDBDE816400220D0E56148534900688D
:105190004E4CC0F3815003280CBF4FF47A7041F29B
:1051A00088300968B0FBF1F104F15400FCF78FF886
:1051B00004F15400BDE81640FCF770B803200090DD
:1051C0001C234FF0405200213F48FEF7FCBA00205C
:1051D000704770B504463D4E304600F0C3F80025D8
:1051E00098B9304600F0C4F80646B068204207D0AF
:1051F0003269F3680021204698470546012D05D005
:10520000304600F0B7F80600EFD1284670BD41499E
:1052100001280CBF40F2FF7000200860002070479A
:1052200070B5FCF73FFE294E294D044696F8E00084
:1052300028B1FEF761FB68B1002086F8E00002208B
:10524000AD68A84706461020FFF7C3FF8EB10320C4
:10525000A8470EE0214909683220B0FBF1F101B9FD
:10526000012106F13000FCF732F806F13000FCF7BE
:1052700015F82046BDE87040FCF71ABE38B5012885
:105280001ED1FEF7E5FA01281CD0FEF72BFB0F4CD0
:105290001249012084F8E00032200968B0FBF1F5E2
:1052A00005B9012504F13000FCF702F8294604F1A4
:1052B0003000FCF70CF804F13000FBF7EFFF01E0E1
:1052C000FEF73CFB002032BD00A00C40101B00206C
:1052D0005CD70000B03F0050E134002044E40000FF
:1052E000B801001028200860282008402C20094020
:1052F0000C400940000222432422084000400340A1
:10530000800104431410094015590000E5560000BF
:10531000B43F0050000004608F3F00008F3F010049
:105320008F3F02008F3F0300903F00018F3F01013C
:10533000903F0002903F00038F3F01048F3F000524
:105340008F1208048F3F00048F3F0006513F00007A
:105350007F3F01003F3F04003F3F02003F3F01000D
:105360007F3F0200006800280CBF0120002070472A
:10537000006870470068704738B504460D4600F075
:105380009EFB00212960616869606168002914BF83
:105390000D6025606560FFE7BDE8324000F091BB1D
:1053A0000B684A68002B0CBF42605A604A68096863
:1053B000002A0CBF016011607047000000680107FF
:1053C0004CBF042000F00300704700001628A8BF5F
:1053D000203870472DE9F84F06469348934C0068F3
:1053E000934D800704D50820A87192482060BFE043
:1053F000FEF7F0FA804690480068009000270017FA
:1054000000F101090098800208D4C8F13E00C010E4
:105410000928A8BF08208145B8BF81468748006891
:10542000C0F30460FFF7D2FF824685480068C0F3EE
:105430000440FFF7CBFF09EB0A011629A8BF15218D
:1054400004DA6FF009029142B8BF114601F01F0261
:105450007C4B42F4F8521A807B4A126812F0030F18
:1054600018BF0127520748BF47F002070EB147F0A7
:10547000040795F90720A8EB0202052A02DAAA79A7
:1054800097425DD0A8F10F0C0026BCF1000FB64684
:1054900007F0010207F00403DFF8B09123D40CEB0E
:1054A0000C1C4FEA2C2EBEF1080F28BF4FF0070E40
:1054B0007646072E28BF062609EB860A59F826608D
:1054C000DAF804A0AAEB060A0AF0FF0613B1CAF341
:1054D000072B5E445FEA877B44BFCAF3074B5E44F9
:1054E0000AB106EB1A6659F82E9009F0FF0A13B1BB
:1054F000C9F307239A44BB0744BFC9F307439A443F
:105500000AB10AEB196A401AACEB0E220099AF718E
:10551000724380320128B8BF0120342301F0FF011B
:1055200058430AEB12224843B0FBF2F0B0F5803F3B
:1055300028BF4FF6FF7008F30708A88085F807809A
:1055400043480068A988286000201F2904D21F2131
:10555000A98004E04908401CB1F5007FFAD20F3958
:10556000090940EAC1003B4908432060002060600F
:10557000BDE8F18F10B53848006884B21CB3FEF75F
:1055800029FA2B4991F90720904205DA6FF07F0242
:105590009042B8BF1046C8718888844201D28C807E
:1055A00010BD2B4A12680B68D21A921C202A28BF01
:1055B0001F22231A5208D3401818B0F5803F28BF85
:1055C0004FF6FF70888010BD2448026802B970470A
:1055D00010B5234B996801F04060B0F1406F21D0C5
:1055E00011480468A4071DD45C68A4071AD4046891
:1055F0001B68C3F303531C331B0114F0050F06D0C3
:105600009A420FD26FF005012140016010BD934214
:1056100008D20A0158BF44F00104490158BF44F0C0
:105620000404046010BD000000000940301009406F
:10563000D0340020FDFDA400B43F0050B81200504B
:105640003C1100506E620840242208409C13005018
:105650000820094000E7A480341009402850094080
:10566000AC3F005010B50C18FEF7A8F9401E804161
:10567000C00FDFF8F0130A68002AFCD0246801226A
:105680000A6008B1FEF79EF9204610BD38B5DFF874
:10569000D843DFF8D8132078897B002508430AD047
:1056A000FCF700FCA178002906BF0121A1700125AB
:1056B000FCF7FEFB0DB1002032BD0220FFF7A0FB7E
:1056C0000E20FFF7B2FBDFF8A803016809B1012043
:1056D00032BDDFF8A023402111600121C16100200B
:1056E000607032BD70B5DFF88C0382B000210160BC
:1056F0004821C160DFF8800300F1D804A17A0029B5
:1057000068D00129DFF8742329D110684BF2F52104
:105710004843050ADFF868030068C0F381400128A8
:1057200006D1FEF757F9FEF720F9684305EB9055CF
:10573000607B10B10020607305E0D2480068000271
:1057400015EB10204508D0480560290C4160012167
:105750008160C648807B00283AD0052039E00229C4
:1057600009D11568284600F0FDF8A5F2FF5003287E
:105770002ED308202DE003292CD1116800F1B805A3
:10578000A1F5C0612868E961002848BF40420029AE
:1057900048BF49428842A8BF002018DA6868BB4E5B
:1057A00080B2009008234FF47F4230213046FEF74C
:1057B0000AF8A86800F072F904213046FEF703F8F1
:1057C000A86900F071F93046FDF7FDFF0120207057
:1057D0000B202073BDE873402DE9F041A64CDFF8A3
:1057E000AC82AB4FAB4EA34804F1E10582B0E9783F
:1057F0004A1E0B2A00F28080DFE802F006223346C0
:105800005B33465B3346636EA34909680968202011
:1058100088470F20F860072341F61D5038614FF488
:10582000C0720220009000F070F807234FF4C0729D
:1058300000214046FDF7DAFF01203060022044E0FD
:105840000120F861287800281DBF00203061032066
:105850000620E870032038600020706070688007C0
:1058600034D4E878032804D1022000F04BF8042057
:1058700007E0002000F046F8E87806280CBF072073
:105880000A20E87001201AE0042903D12021B9611F
:10589000012105E00122BA610A290CBF032102217E
:1058A0006970002139600821C16001600120386001
:1058B00026E005290CBF06200920E8700020706052
:1058C00004E00020306070600C20E87004F1780083
:1058D000BDE8F641FBF7E2BC00210160012064490C
:1058E00008600E20FFF736FA0220FFF71FFA0120AA
:1058F000E8700020A87003E0BDE8F341FCF736BF74
:10590000BDE8F38100900523602200214046FDF7A9
:105910005ABF000080B558495E4891F8E410891ECE
:105920000A291AD8DFE801F0060A0E190A0E190A28
:105930000E19120001688907FCD510E0416889073B
:10594000FCD40CE041688907FCD508E001688907B0
:10595000FCD441688907FCD401E0FCF707FFBDE8EF
:10596000014039E7F8B50746484C30212046FFF79B
:1059700079FE414E06F1B805C0F3072068600421A6
:105980002046FFF76FFEC0F38440A8602021204628
:10599000FFF768FEC0F38120A861B7F5C0602860FA
:1059A00002D186F8D800F1BD296996F8D8202AB925
:1059B0006A68A968EA60E861AA696A61E86900281A
:1059C0004CBF6FF00102022200EB400010184210A1
:1059D00000EB927001EBA0006968E960012810DA21
:1059E0006A69032A04D1153001281DDA01201BE061
:1059F0000B300128B8BF0120491E48BF0021E960D3
:105A000007E01F2812DB6A692AB915381F28A8BFCA
:105A10001E20032109E00B381F28A8BF1E20491CA7
:105A20004029A8BF3F21E96000216961286108235E
:105A3000E86880B200904FF47F42302100F03CF8DB
:105A40000120009011234FF4003200F034F828694F
:105A500000F024F800F02FF8686900F025F800F055
:105A60002BF8F1BD00800C40F11B00205CD700003A
:105A700004800C402C500C40101B002008400C40AF
:105A8000B43F0050102009403C600C4000A00C4086
:105A900000400C4034600C40A001001080B2009027
:105AA00012234FF4F802704780B200900A234FF49B
:105AB00040622021704704212046FDF784BEFCF798
:105AC000F1B9FCF7F5B9000020B108232C22002120
:105AD000FCF7CDBF704720B108233C220021FDF721
:105AE000CBB8704780B5FBF7D5FEADF80000FCF7EA
:105AF000D9F9ADF80200009802BD01B5BDF8020069
:105B0000FCF7D6F9BDF80000BDE80240FBF7C9BEBE
:105B100038B5DFF8A008DFF8A018DFF8A048800843
:105B20008000091A2161E060034602E0002523F8A5
:105B3000025B0D18AB42F9D38B0800EB8303002204
:105B400023F8042CE82202804FF6FC721140EC3955
:105B5000A0F8E810E8306060002000F004F8A060D1
:105B6000E068606031BDF8B500240025061D16F020
:105B700003001CBF311D0E1AFFF7B4FFDFF83C28ED
:105B8000B6B21060112EB4BF576897683A881304F4
:105B900003D582F4004200251AE02B0014D023889C
:105BA00039880B4423809BB2B34211D327461A464F
:105BB000B7B1921B92B2042AA7BFBA5346F4004170
:105BC000398841F4004109E0B242F1DA01253C464E
:105BD00017443A88002ADAD1002701E027F8041B8D
:105BE000FFF78BFF3846F2BD10B50446FFF77AFF8A
:105BF000DFF8C817086034F8042CC2F30E0224F84A
:105C0000042C221F4B689A4238BF4A60BDE81040FE
:105C100073E770B50446FFF765FF0021DFF8A05772
:105C20000C2202FB01F6AA5942B1944203D1FFF7BC
:105C300064FFA81970BD491C0829F1D321E070B593
:105C40000546FFF74FFF044600200C22DFF87017CF
:105C500042438E18316849B90020B0603560002297
:105C6000FCF797FF706018B900F048FC8D4204D132
:105C70002046FFF742FF304670BD401C0828E4D3A1
:105C80002046FFF73AFF002070BD38B50446FFF705
:105C900029FF0025DFF82C170C226A438A5A1300CB
:105CA00008D0944203D1FFF728FFE8B232BD6D1C43
:105CB0000B2DF1D3FFF721FFFF2032BD10B50446B5
:105CC0002088FFF7E2FFFF2800D170E10C22DFF807
:105CD000F416504308448168080002D16FF00100B7
:105CE00010BD2046BDE81040084702460FF2447040
:105CF000104710B500200C21DFF8C426002401FB5A
:105D000000F3401CD450134408289C60F7D30020B3
:105D1000DFF8B026002301FB00F4401C13530B28CE
:105D2000F9D3082010800FF2F5609060BDE81040B4
:105D3000EEE670B590B0FBF7ADFD04466846FFF7A0
:105D4000CAFE05200690002240F2B630089069464F
:105D50004FF6C1500490DFF870060590DFF86C062E
:105D6000FCF798FF050006D0FFF7BCFE0646284664
:105D7000FFF765FF08B900F0C1FB3046FFF7BDFE35
:105D80002046FBF78EFD10B070BDF8B500F0E9F8C5
:105D9000FFF755FF05006FF0020616D0FFF7A2FED1
:105DA000A28800210C27DFF81C364F433B441F8894
:105DB0003FB91A805D60A2689A60217369682161A9
:105DC000C7E2BA4203D1FFF798FE3046F2BD491C44
:105DD0000B29E7D300F092FB00BF38B500F0C1F803
:105DE000FFF72DFF050019D0FFF77CFE00210C23E3
:105DF000DFF8D0254B431A44138863B94FF6F87384
:105E0000138055600023936021716968A160FFF7DA
:105E100074FE002032BD491C0B29E8D300F06EFB54
:105E200000BF10B5044660680C3080B2FFF79BFEDF
:105E300000B91AE06168018100210160FF218172CF
:105E40000C30A060002010BD80B540680C3811E017
:105E500080B288E610B50446606880B2FFF783FE22
:105E6000A06000B901E0002010BD6FF0030010BD7C
:105E700080B54068FFF7B8FE002002BD38B5044683
:105E80000D46FFF72FFE002145F80C1C216811B9C3
:105E9000256006E0114651F80C2C002AFAD141F891
:105EA0000C5CBDE8324028E62DE9F04104466FF075
:105EB0000206E068A0F10C05A0790B28BCBF207990
:105EC0000B280BDAFFF70EFEA179DFF8F8840C2718
:105ED00079434144496819B9FFF70FFE304617E08E
:105EE000FFF70BFE20792871A0796871207AA871DC
