:100000000C9476000C949E000C949E000C94C005F9
:100010000C94C0050C94C0050C949E000C949E009A
:100020000C949E000C949E000C949E000C949E00D8
:100030000C949E000C949E000C949E000C949E00C8
:100040000C94F4030C949E000C9464040C943E04F1
:100050000C949E000C949E000C949E000C949E00A8
:100060000C9496040C949E000000000025002800CB
:100070002B0000000000240027002A0004040404D0
:100080000404040402020202020203030303030342
:10009000010204081020408001020408102001021F
:1000A000040810202D2D2D2D2D2D2D2D2D2D2D2DF8
:1000B0002D2D2D2D2D2D2D2D2D2D2D2D2D2D2D2D70
:1000C0002D2D2D2D2D2D2D2D2D2D2D2D2D2D2D2D60
:1000D0002D2D2D2D004772617669747952757368E4
:1000E000204669726D7761726500CA0511241FBED2
:1000F000CFEFD8E0DEBFCDBF11E0A0E0B1E0ECE192
:10010000F2E102C005900D92A433B107D9F722E0C5
:10011000A4E3B1E001C01D92A335B207E1F710E0FE
:10012000C6E7D0E004C02197FE010E940109C5374F
:10013000D107C9F70E9403060C940C090C94000027
:1001400080E480937C0080917A00806480937A00C0
:1001500080917A0086FDFCCF809178002091790013
:1001600090E0922B08953FB7F8948091A60190916A
:10017000A701A091A801B091A90126B5A89B05C02F
:100180002F3F19F00196A11DB11D3FBFBA2FA92F16
:10019000982F8827820F911DA11DB11DBC01CD0193
:1001A00042E0660F771F881F991F4A95D1F708957F
:1001B0008F929F92AF92BF92CF92DF92EF92FF9277
:1001C0006B017C010E94B3004B015C01C114D1049E
:1001D000E104F104F1F00E94B300DC01CB018819C5
:1001E0009909AA09BB09883E9340A105B10570F39E
:1001F00021E0C21AD108E108F10888EE880E83E0F8
:10020000981EA11CB11CC114D104E104F10419F71A
:10021000DDCFFF90EF90DF90CF90BF90AF909F9099
:100220008F900895CF92DF92EF92FF920F931F93DA
:10023000CF93DF936C017A018B01C0E0D0E0CE1543
:10024000DF0581F0D8016D918D01D601ED91FC9112
:100250000190F081E02DC6010995892B11F02196BE
:10026000EECF7E01C701DF91CF911F910F91FF90DB
:10027000EF90DF90CF900895FC01538D448D252F92
:1002800030E0842F90E0821B930B541710F0CF9630
:10029000089501970895FC01918D828D981761F062
:1002A000828DDF01A80FB11D5D968C91928D9F5FAD
:1002B0009F73928F90E008958FEF9FEF0895FC0158
:1002C000918D828D981731F0828DE80FF11D858D0B
:1002D00090E008958FEF9FEF0895FC01918D228D9E
:1002E000892F90E0805C9F4F821B91098F73992723
:1002F00008958AEA91E00E946D0121E0892B09F4BA
:1003000020E0822F0895FC01848DDF01A80FB11D2C
:10031000A35ABF4F2C91848D90E001968F7399273B
:10032000848FA689B7892C93A089B1898C91837019
:1003300080648C93938D848D981306C00288F38912
:10034000E02D80818F7D80830895EF92FF920F933F
:100350001F93CF93DF93EC0181E0888F9B8D8C8D71
:10036000981305C0E889F989808185FD26C0F62E9D
:100370000B8D10E00F5F1F4F0F731127E02E8C8D38
:10038000E8120CC00FB607FCFACFE889F989808122
:1003900085FFF5CFCE010E948301F1CF8B8DFE0149
:1003A000E80FF11DE35AFF4FF0829FB7F8940B8FCF
:1003B000EA89FB89808180620AC09FB7F894EE8940
:1003C000FF896083E889F9898081837080648083F4
:1003D0009FBF81E090E0DF91CF911F910F91FF903F
:1003E000EF900895CF93DF93EC01888D8823C9F0B7
:1003F000EA89FB89808185FD05C0A889B9898C912E
:1004000086FD0FC00FB607FCF5CF808185FFF2CFC8
:10041000A889B9898C9185FFEDCFCE010E94830117
:10042000E7CFDF91CF91089580E090E0892B29F00C
:100430000E94790181110C940000089585ED80934C
:10044000BC008091BC0084FDFCCF10927B0108951C
:1004500040915701262F30E0240F311D2132310504
:10046000DCF420917B012430C9F4FC0180E090E0B1
:10047000861758F4309157012191DC01A95CBE4FD9
:10048000A30FB11D2C930196F3CF80915701680FF4
:100490006093570180E0089581E0089582E0089517
:1004A00008958FEF9FEF08958FEF9FEF089580914C
:1004B000360190E09195819591090895CF93DF934E
:1004C000CB01EA01642F0E942802CE01DF91CF9177
:1004D0000895CF93DF931F92CDB7DEB7698361E0B4
:1004E000CE0101960E94280281E090E00F90DF91FA
:1004F000CF910895089580E090E00895009769F005
:10050000FC0101900020E9F73197AF01481B590B1E
:10051000BC018AEA91E00C94120180E090E0089519
:100520000F931F93CF93DF938C01C0E0D0E0F801CD
:10053000EC0FFD1F6491662341F08AEA91E00E946E
:10054000A501892B11F02196F2CF84E291E00E945F
:100550007E028C0F9D1FDF91CF911F910F91089507
:100560000E9407092F923F924F925F926F927F9263
:100570008F929F92AF92BF92CF92DF92EF92FF92B3
:100580000F931F93CF93DF93CDB7DEB7C15FD740F3
:100590000FB6F894DEBF0FBECDBF0E94A000CE0103
:1005A00001961C018E010F52184F7C010E94A00081
:1005B000BC01990F880B990B0E94B807F701619352
:1005C0007193819391937F0161E070E080E090E00E
:1005D0000E94D8000E151F0549F720E030EC4FE7C8
:1005E00054E4F10160817181828193810E94150739
:1005F0006B017C014B015C01F1016193719381936B
:1006000091931F019B01AC010E94DA08882319F025
:1006100087E291E01AC026013701E89477F82FEFBE
:100620003FEF4FE75FE7C301B2010E94DA08811193
:100630000FC02FEF3FEF4FE75FE7C301B2010E940A
:10064000100718162CF48BE291E00E947E02A4C0E1
:100650002FEF3FEF4FE75FE4C701B6010E94680844
:1006600018161CF48FE291E0F0CF2FEF3FEF4FE729
:100670005FECC701B6010E94100787FDF3CF20E0B1
:1006800030E0A901C701B6010E94100787FF0BC027
:100690006DE28AEA91E00E94A50146015701B7FA8E
:1006A000B094B7F8B0942AE037ED43EA5BE3C501B4
:1006B000B4010E94A4066B017C010E9487074B01D4
:1006C0005C010E94B6079B01AC01C701B6010E9404
:1006D000A3062B013C01F80110A27801F0E2EF0E15
:1006E000F11CC501B4012AE030E040E050E00E9476
:1006F000DF0849015A01605DF70162937F01232BF6
:10070000242B252B71F7CF010E947E026EE28AEA2C
:1007100091E00E94A50183E0F82EFA94FF20E1F118
:1007200020E030E040E251E4C301B2010E946D08D4
:100730004B015C010E9487079B0140E050E0F801FB
:1007400010A22801F0E24F0E511C762EC32ED42E9B
:10075000E52ECA01B9012AE030E040E050E00E94F5
:10076000DF08605DF20162932F012115310541051B
:10077000510579F7CF010E947E02672D7C2D8D2DCA
:100780009E2D0E94B6079B01AC01C501B4010E94D9
:10079000A3062B013C01C1CF84E291E00E947E02BE
:1007A0000215130509F019CF64E670E080E090E0CF
:1007B0000E94D800CF50D84F0FB6F894DEBF0FBEBE
:1007C000CDBFDF91CF911F910F91FF90EF90DF9000
:1007D000CF90BF90AF909F908F907F906F905F90E1
:1007E0004F903F902F9008951F920F920FB60F9247
:1007F00011242F933F938F939F93AF93BF93809137
:10080000A2019091A301A091A401B091A501309102
:10081000A10123E0230F2D3720F40196A11DB11D66
:1008200005C026E8230F0296A11DB11D2093A1014A
:100830008093A2019093A301A093A401B093A5017A
:100840008091A6019091A701A091A801B091A90162
:100850000196A11DB11D8093A6019093A701A093BD
:10086000A801B093A901BF91AF919F918F913F9142
:100870002F910F900FBE0F901F9018951F920F92FF
:100880000FB60F9211242F933F934F935F936F9363
:100890007F938F939F93AF93BF93EF93FF938AEAD6
:1008A00091E00E948301FF91EF91BF91AF919F91E1
:1008B0008F917F916F915F914F913F912F910F9009
:1008C0000FBE0F901F9018951F920F920FB60F92A8
:1008D00011242F938F939F93EF93FF93E091BA018D
:1008E000F091BB018081E091C001F091C10182FDD6
:1008F00012C090818091C3018F5F8F732091C401DA
:10090000821751F0E091C301F0E0E655FE4F958F5C
:100910008093C30101C08081FF91EF919F918F91DE
:100920002F910F900FBE0F901F9018951F920F924E
:100930000FB60F9211242F933F934F935F936F93B2
:100940007F938F939F93AF93BF93EF93FF93809188
:10095000B900887F803609F49CC068F5883209F4B4
:100960005BC090F4803109F454C038F4882309F452
:10097000F2C0883009F44DC0F2C0883109F44CC08F
:10098000803209F45DC0EBC0803409F468C048F4DB
:10099000803309F455C0883309F0E1C080937A01AF
:1009A000D4C0803509F44FC0883509F45DC088345F
:1009B00009F0D5C0D2C0883909F4C3C0A8F488377B
:1009C00009F467C038F4883609F463C0803709F445
:1009D00060C0C5C0883809F4B4C0803909F45FC06C
:1009E000803809F0BCC05BC0803B09F484C038F497
:1009F000803A09F466C0883A09F47DC0B0C0803CF2
:100A000009F4A3C0883C09F4A0C0883B09F486C05F
:100A1000A6C08091A00110C090919F0180919E017D
:100A2000981770F5E0919F0181E08E0F80939F01F0
:100A3000F0E0E258FE4F80818093BB0085EC82C0DD
:100A400080937A018AC0E0919F0181E08E0F8093AC
:100A50009F018091BB00F0E0E258FE4F80839091AF
:100A60009F0180919E016AC0E0919F0181E08E0FFD
:100A700080939F018091BB00F0E0E258FE4F80839D
:100A800080917D01811169C081E080937C0184EABD
:100A90005DC083E080937B0110927901CFCF80917C
:100AA0007901803208F04DC0E091790181E08E0F2C
:100AB000809379018091BB00F0E0E75AFE4F80837C
:100AC000BDCF85EC8093BC0010927B0180917901B1
:100AD000803230F4E0917901F0E0E75AFE4F108265
:100AE0006091790170E089E591E0E0E0F0E009953E
:100AF0001092790134C084E080937B0110925801F8
:100B000010925701E0E0F0E00995809157018111C2
:100B100005C081E08093570110923701E0915801A0
:100B200081E08E0F80935801F0E0E95CFE4F8081F8
:100B30008093BB009091580180915701981708F459
:100B40007DCF85E88093BC000AC085EC8093BC0013
:100B500010927B0104C010927A010E941E02FF9144
:100B6000EF91BF91AF919F918F917F916F915F9125
:100B70004F913F912F910F900FBE0F901F9018959E
:100B80001F920F920FB60F9211240F900FBE0F906D
:100B90001F901895EAEAF1E01382128288EE93E042
:100BA000A0E0B0E084839583A683B78324E031E09E
:100BB0003183208325EC30E03587248724EC30E036
:100BC0003787268720EC30E0318B208B21EC30E01A
:100BD000338B228B22EC30E0358B248B26EC30E0FB
:100BE000378B268B118E128E138E148EE7E4F2E073
:100BF0001382128284839583A683B78386E191E072
:100C0000918380830895789484B5826084BD84B58F
:100C1000816084BD85B5826085BD85B5816085BDF7
:100C200080916E00816080936E00109281008091AF
:100C30008100826080938100809181008160809337
:100C40008100809180008160809380008091B1005C
:100C500084608093B1008091B00081608093B00087
:100C600080917A00846080937A0080917A0082601B
:100C700080937A0080917A00816080937A008091DD
:100C80007A00806880937A001092C100EDE9F0E06C
:100C90002491E9E8F0E08491882399F090E0880FAE
:100CA000991FFC01EE58FF4FA591B491FC01E85942
:100CB000FF4F859194918FB7F894EC91E22BEC93D0
:100CC0008FBFE091BA01F091BB0182E08083E09197
:100CD000B601F091B7011082E091B801F091B9012D
:100CE00080E180831092C201E091BE01F091BF01CA
:100CF00086E08083E091BC01F091BD01808180613C
:100D00008083E091BC01F091BD0180818860808387
:100D1000E091BC01F091BD01808180688083E09109
:100D2000BC01F091BD0180818F7D808385ED90E0D5
:100D30000E94900284EA90E00E9490020E94B20217
:100D40000E941402FBCF5058BB27AA270E94BB0663
:100D50000C942E080E94200838F00E94270820F0EA
:100D600039F49F3F19F426F40C941D080EF4E09515
:100D7000E7FB0C941708E92F0E943F0858F3BA17B5
:100D8000620773078407950720F079F4A6F50C94A1
:100D900061080EF4E0950B2EBA2FA02D0B01B901BE
:100DA00090010C01CA01A0011124FF27591B99F0E1
:100DB000593F50F4503E68F11A16F040A22F232FED
:100DC000342F4427585FF3CF469537952795A7953D
:100DD000F0405395C9F77EF41F16BA0B620B730BE4
:100DE000840BBAF09150A1F0FF0FBB1F661F771F55
:100DF000881FC2F70EC0BA0F621F731F841F48F40A
:100E0000879577956795B795F7959E3F08F0B0CF92
:100E10009395880F08F09927EE0F97958795089579
:100E20000E94F30708F481E008950E9429070C94BA
:100E30002E080E94270858F00E94200840F029F44C
:100E40005F3F29F00C94170851110C9462080C9420
:100E50001D080E943F0868F39923B1F3552391F3CD
:100E6000951B550BBB27AA2762177307840738F019
:100E70009F5F5F4F220F331F441FAA1FA9F335D076
:100E80000E2E3AF0E0E832D091505040E695001C2A
:100E9000CAF72BD0FE2F29D0660F771F881FBB1FE4
:100EA000261737074807AB07B0E809F0BB0B802DC2
:100EB000BF01FF2793585F4F3AF09E3F510578F0EE
:100EC0000C9417080C9462085F3FE4F3983ED4F347
:100ED000869577956795B795F7959F5FC9F7880FC2
:100EE000911D9695879597F90895E1E0660F771F14
:100EF000881FBB1F621773078407BA0720F0621BA5
:100F0000730B840BBA0BEE1F88F7E09508950E94CF
:100F1000470888F09F5798F0B92F9927B751B0F03C
:100F2000E1F0660F771F881F991F1AF0BA95C9F76D
:100F300014C0B13091F00E946108B1E008950C94A2
:100F40006108672F782F8827B85F39F0B93FCCF355
:100F5000869577956795B395D9F73EF490958095EA
:100F6000709561957F4F8F4F9F4F0895E89409C00A
:100F700097FB3EF490958095709561957F4F8F4FCC
:100F80009F4F9923A9F0F92F96E9BB279395F695E2
:100F9000879577956795B795F111F8CFFAF4BB0F60
:100FA00011F460FF1BC06F5F7F4F8F4F9F4F16C0C4
:100FB000882311F096E911C0772321F09EE8872F4E
:100FC000762F05C0662371F096E8862F70E060E00A
:100FD0002AF09A95660F771F881FDAF7880F969583
:100FE000879597F90895990F0008550FAA0BE0E827
:100FF000FEEF16161706E807F907C0F012161306DB
:10100000E407F50798F0621B730B840B950B39F41A
:101010000A2661F0232B242B252B21F408950A2680
:1010200009F4A140A6958FEF811D811D089597F9C0
:101030009F6780E870E060E008959FEF80EC08957E
:1010400000240A94161617061806090608950024A7
:101050000A9412161306140605060895092E039421
:10106000000C11F4882352F0BB0F40F4BF2B11F495
:1010700060FF04C06F5F7F4F8F4F9F4F089557FDF4
:101080009058440F551F59F05F3F71F04795880FF6
:1010900097FB991F61F09F3F79F08795089512168D
:1010A00013061406551FF2CF4695F1DF08C0161639
:1010B00017061806991FF1CF8695710561050894EA
:1010C0000895E894BB2766277727CB0197F9089501
:1010D0000E94F30708F48FEF08950E9480080C9493
:1010E0002E080E94200838F00E94270820F095233F
:1010F00011F00C9417080C941D0811240C9462082C
:101100000E943F0870F3959FC1F3950F50E0551F63
:10111000629FF001729FBB27F00DB11D639FAA274C
:10112000F00DB11DAA1F649F6627B00DA11D661F9B
:10113000829F2227B00DA11D621F739FB00DA11DBC
:10114000621F839FA00D611D221F749F3327A00D76
:10115000611D231F849F600D211D822F762F6A2F12
:1011600011249F5750409AF0F1F088234AF0EE0F77
:10117000FF1FBB1F661F771F881F91505040A9F7A4
:101180009E3F510580F00C9417080C9462085F3F55
:10119000E4F3983ED4F3869577956795B795F795E0
:1011A000E7959F5FC1F7FE2B880F911D9695879558
:1011B00097F908950E94F307880B990B0895A1E20F
:1011C0001A2EAA1BBB1BFD010DC0AA1FBB1FEE1FC1
:1011D000FF1FA217B307E407F50720F0A21BB30B0C
:1011E000E40BF50B661F771F881F991F1A9469F788
:1011F00060957095809590959B01AC01BD01CF01E4
:101200000895EE0FFF1F0590F491E02D099481E001
:0C12100090E0F8940C940C09F894FFCFC7
:10121C0000000000A50112013C01F2016D014B011F
:10122C005F010000000069025E027B02500257025F
:10123C00540251020D0A006E616E00696E66006FF9
:04124C0076660000C2
:00000001FF
